{
  "contractName": "ScratchLottery",
  "abi": [
    {
      "constant": true,
      "inputs": [],
      "name": "minTicketPrice",
      "outputs": [
        {
          "name": "",
          "type": "uint256"
        }
      ],
      "payable": false,
      "stateMutability": "view",
      "type": "function"
    },
    {
      "constant": false,
      "inputs": [],
      "name": "renounceOwnership",
      "outputs": [],
      "payable": false,
      "stateMutability": "nonpayable",
      "type": "function"
    },
    {
      "constant": true,
      "inputs": [],
      "name": "owner",
      "outputs": [
        {
          "name": "",
          "type": "address"
        }
      ],
      "payable": false,
      "stateMutability": "view",
      "type": "function"
    },
    {
      "constant": true,
      "inputs": [],
      "name": "isOwner",
      "outputs": [
        {
          "name": "",
          "type": "bool"
        }
      ],
      "payable": false,
      "stateMutability": "view",
      "type": "function"
    },
    {
      "constant": true,
      "inputs": [],
      "name": "donationsToOwner",
      "outputs": [
        {
          "name": "",
          "type": "uint256"
        }
      ],
      "payable": false,
      "stateMutability": "view",
      "type": "function"
    },
    {
      "constant": true,
      "inputs": [],
      "name": "ticketCount",
      "outputs": [
        {
          "name": "",
          "type": "uint256"
        }
      ],
      "payable": false,
      "stateMutability": "view",
      "type": "function"
    },
    {
      "constant": true,
      "inputs": [
        {
          "name": "",
          "type": "address"
        }
      ],
      "name": "players",
      "outputs": [
        {
          "name": "id",
          "type": "uint256"
        },
        {
          "name": "blockNumber",
          "type": "uint256"
        },
        {
          "name": "redeemableAt",
          "type": "uint256"
        },
        {
          "name": "redeemedAt",
          "type": "uint256"
        },
        {
          "name": "price",
          "type": "uint256"
        }
      ],
      "payable": false,
      "stateMutability": "view",
      "type": "function"
    },
    {
      "constant": false,
      "inputs": [
        {
          "name": "newOwner",
          "type": "address"
        }
      ],
      "name": "transferOwnership",
      "outputs": [],
      "payable": false,
      "stateMutability": "nonpayable",
      "type": "function"
    },
    {
      "payable": true,
      "stateMutability": "payable",
      "type": "fallback"
    },
    {
      "anonymous": false,
      "inputs": [
        {
          "indexed": false,
          "name": "player",
          "type": "address"
        },
        {
          "indexed": false,
          "name": "id",
          "type": "uint256"
        }
      ],
      "name": "TicketPurchased",
      "type": "event"
    },
    {
      "anonymous": false,
      "inputs": [],
      "name": "DonationReceived",
      "type": "event"
    },
    {
      "anonymous": false,
      "inputs": [
        {
          "indexed": false,
          "name": "player",
          "type": "address"
        },
        {
          "indexed": false,
          "name": "id",
          "type": "uint256"
        },
        {
          "indexed": false,
          "name": "value",
          "type": "uint256"
        }
      ],
      "name": "TicketRedeemed",
      "type": "event"
    },
    {
      "anonymous": false,
      "inputs": [
        {
          "indexed": true,
          "name": "previousOwner",
          "type": "address"
        },
        {
          "indexed": true,
          "name": "newOwner",
          "type": "address"
        }
      ],
      "name": "OwnershipTransferred",
      "type": "event"
    },
    {
      "constant": true,
      "inputs": [],
      "name": "balance",
      "outputs": [
        {
          "name": "",
          "type": "uint256"
        }
      ],
      "payable": false,
      "stateMutability": "view",
      "type": "function"
    },
    {
      "constant": false,
      "inputs": [],
      "name": "donateToOwner",
      "outputs": [],
      "payable": true,
      "stateMutability": "payable",
      "type": "function"
    },
    {
      "constant": false,
      "inputs": [],
      "name": "donateToContract",
      "outputs": [],
      "payable": true,
      "stateMutability": "payable",
      "type": "function"
    },
    {
      "constant": false,
      "inputs": [],
      "name": "withdrawDonationsToOwner",
      "outputs": [],
      "payable": true,
      "stateMutability": "payable",
      "type": "function"
    },
    {
      "constant": false,
      "inputs": [],
      "name": "purchaseTicket",
      "outputs": [],
      "payable": true,
      "stateMutability": "payable",
      "type": "function"
    },
    {
      "constant": true,
      "inputs": [],
      "name": "getTicket",
      "outputs": [
        {
          "name": "id",
          "type": "uint256"
        },
        {
          "name": "blockNumber",
          "type": "uint256"
        },
        {
          "name": "redeemableAt",
          "type": "uint256"
        },
        {
          "name": "redeemedAt",
          "type": "uint256"
        },
        {
          "name": "price",
          "type": "uint256"
        }
      ],
      "payable": false,
      "stateMutability": "view",
      "type": "function"
    },
    {
      "constant": false,
      "inputs": [
        {
          "name": "_index1",
          "type": "uint256"
        },
        {
          "name": "_index2",
          "type": "uint256"
        },
        {
          "name": "_index3",
          "type": "uint256"
        }
      ],
      "name": "redeemWin",
      "outputs": [],
      "payable": false,
      "stateMutability": "nonpayable",
      "type": "function"
    }
  ],
  "bytecode": "0x60806040526509184e72a00060015560006002556000600355336000806101000a81548173ffffffffffffffffffffffffffffffffffffffff021916908373ffffffffffffffffffffffffffffffffffffffff1602179055506000809054906101000a900473ffffffffffffffffffffffffffffffffffffffff1673ffffffffffffffffffffffffffffffffffffffff16600073ffffffffffffffffffffffffffffffffffffffff167f8be0079c531659141344cd1fd0a4f28419497f9722a3daafe3b4186f6b6457e060405160405180910390a361144a806100e36000396000f3fe6080604052600436106100e85760003560e01c80638f32d59b1161008a578063cfbd900f11610059578063cfbd900f146102bc578063e2eb41ff146102e7578063f0c2b41b14610368578063f2fde38b14610372576100e8565b80638f32d59b146101f0578063b69ef8a81461021f578063b8f8d7231461024a578063c002c4d614610275576100e8565b806357bb806d116100c657806357bb806d1461014d578063619b6b0314610157578063715018a6146101825780638da5cb5b14610199576100e8565b806310692744146100ea57806321846c76146101395780634dedca2f14610143575b005b3480156100f657600080fd5b506101376004803603606081101561010d57600080fd5b810190808035906020019092919080359060200190929190803590602001909291905050506103c3565b005b610141610b1f565b005b61014b610c9c565b005b610155610cca565b005b34801561016357600080fd5b5061016c610d08565b6040518082815260200191505060405180910390f35b34801561018e57600080fd5b50610197610d0e565b005b3480156101a557600080fd5b506101ae610e47565b604051808273ffffffffffffffffffffffffffffffffffffffff1673ffffffffffffffffffffffffffffffffffffffff16815260200191505060405180910390f35b3480156101fc57600080fd5b50610205610e70565b604051808215151515815260200191505060405180910390f35b34801561022b57600080fd5b50610234610ec7565b6040518082815260200191505060405180910390f35b34801561025657600080fd5b5061025f610ee6565b6040518082815260200191505060405180910390f35b34801561028157600080fd5b5061028a610eec565b604051808681526020018581526020018481526020018381526020018281526020019550505050505060405180910390f35b3480156102c857600080fd5b506102d1610fa5565b6040518082815260200191505060405180910390f35b3480156102f357600080fd5b506103366004803603602081101561030a57600080fd5b81019080803573ffffffffffffffffffffffffffffffffffffffff169060200190929190505050610fab565b604051808681526020018581526020018481526020018381526020018281526020019550505050505060405180910390f35b610370610fe1565b005b34801561037e57600080fd5b506103c16004803603602081101561039557600080fd5b81019080803573ffffffffffffffffffffffffffffffffffffffff169060200190929190505050611116565b005b8183141580156103d35750808214155b80156103df5750808314155b610451576040517f08c379a000000000000000000000000000000000000000000000000000000000815260040180806020018281038252601b8152602001807f4d7573742070726f76696465203320756e697175652063656c6c73000000000081525060200191505060405180910390fd5b600c831080156104615750600c82105b801561046d5750600c81105b6104c2576040517f08c379a00000000000000000000000000000000000000000000000000000000081526004018080602001828103825260228152602001806113db6022913960400191505060405180910390fd5b6104ca611360565b600460003373ffffffffffffffffffffffffffffffffffffffff1673ffffffffffffffffffffffffffffffffffffffff1681526020019081526020016000206040518060a001604052908160008201548152602001600182015481526020016002820154815260200160038201548152602001600482015481525050905060008160000151116105c2576040517f08c379a00000000000000000000000000000000000000000000000000000000081526004018080602001828103825260128152602001807f596f752068617665206e6f207469636b6574000000000000000000000000000081525060200191505060405180910390fd5b438160400151111561063c576040517f08c379a00000000000000000000000000000000000000000000000000000000081526004018080602001828103825260148152602001807f5469636b6574206e6f74206d696e65642079657400000000000000000000000081525060200191505060405180910390fd5b60008160600151146106b6576040517f08c379a00000000000000000000000000000000000000000000000000000000081526004018080602001828103825260178152602001807f5469636b657420616c72656164792072656465656d656400000000000000000081525060200191505060405180910390fd5b600081604001514090506000801b811415610739576040517f08c379a00000000000000000000000000000000000000000000000000000000081526004018080602001828103825260118152602001807f5469636b6574206973206578706972656400000000000000000000000000000081525060200191505060405180910390fd5b60003383600001518784604051602001808573ffffffffffffffffffffffffffffffffffffffff1673ffffffffffffffffffffffffffffffffffffffff1660601b815260140184815260200183815260200182815260200194505050505060405160208183030381529060405280519060200120905060006107ba8261119c565b60ff16905060003385600001518886604051602001808573ffffffffffffffffffffffffffffffffffffffff1673ffffffffffffffffffffffffffffffffffffffff1660601b815260140184815260200183815260200182815260200194505050505060405160208183030381529060405280519060200120905060006108408261119c565b60ff16905060003387600001518988604051602001808573ffffffffffffffffffffffffffffffffffffffff1673ffffffffffffffffffffffffffffffffffffffff1660601b815260140184815260200183815260200182815260200194505050505060405160208183030381529060405280519060200120905060006108c68261119c565b60ff16905082851480156108d957508083145b61094b576040517f08c379a00000000000000000000000000000000000000000000000000000000081526004018080602001828103825260198152602001807f33206d61746368657320726571756972656420746f2077696e0000000000000081525060200191505060405180910390fd5b600085116109c1576040517f08c379a00000000000000000000000000000000000000000000000000000000081526004018080602001828103825260168152602001807f5469636b6574206973206e6f7420612077696e6e65720000000000000000000081525060200191505060405180910390fd5b600060018603600a0a89608001510290503073ffffffffffffffffffffffffffffffffffffffff1631811115610a0c573073ffffffffffffffffffffffffffffffffffffffff163190505b43600460003373ffffffffffffffffffffffffffffffffffffffff1673ffffffffffffffffffffffffffffffffffffffff168152602001908152602001600020600301819055503373ffffffffffffffffffffffffffffffffffffffff166108fc829081150290604051600060405180830381858888f19350505050158015610a99573d6000803e3d6000fd5b507fc486cbcc73b5497f564228f5833a8766da2c87c2b5669ce5838d50bdf396f074338a6000015183604051808473ffffffffffffffffffffffffffffffffffffffff1673ffffffffffffffffffffffffffffffffffffffff168152602001838152602001828152602001935050505060405180910390a1505050505050505050505050565b600154341015610b7a576040517f08c379a00000000000000000000000000000000000000000000000000000000081526004018080602001828103825260258152602001806113b66025913960400191505060405180910390fd5b6002600081548092919060010191905055506040518060a0016040528060025481526020014381526020016001430181526020016000815260200134815250600460003373ffffffffffffffffffffffffffffffffffffffff1673ffffffffffffffffffffffffffffffffffffffff16815260200190815260200160002060008201518160000155602082015181600101556040820151816002015560608201518160030155608082015181600401559050507f0668f5b446eb814fe35b3206f43f14bd8567ba04ddaf7a3ee56516929ab22ccb33600254604051808373ffffffffffffffffffffffffffffffffffffffff1673ffffffffffffffffffffffffffffffffffffffff1681526020018281526020019250505060405180910390a1565b7fe554fffbd0e5c2a35b0a24fef85d4297554111caf74cc33cb4cc85a117bbe6e060405160405180910390a1565b346003600082825401925050819055507fe554fffbd0e5c2a35b0a24fef85d4297554111caf74cc33cb4cc85a117bbe6e060405160405180910390a1565b60015481565b610d16610e70565b610d88576040517f08c379a00000000000000000000000000000000000000000000000000000000081526004018080602001828103825260208152602001807f4f776e61626c653a2063616c6c6572206973206e6f7420746865206f776e657281525060200191505060405180910390fd5b600073ffffffffffffffffffffffffffffffffffffffff166000809054906101000a900473ffffffffffffffffffffffffffffffffffffffff1673ffffffffffffffffffffffffffffffffffffffff167f8be0079c531659141344cd1fd0a4f28419497f9722a3daafe3b4186f6b6457e060405160405180910390a360008060006101000a81548173ffffffffffffffffffffffffffffffffffffffff021916908373ffffffffffffffffffffffffffffffffffffffff160217905550565b60008060009054906101000a900473ffffffffffffffffffffffffffffffffffffffff16905090565b60008060009054906101000a900473ffffffffffffffffffffffffffffffffffffffff1673ffffffffffffffffffffffffffffffffffffffff163373ffffffffffffffffffffffffffffffffffffffff1614905090565b60003073ffffffffffffffffffffffffffffffffffffffff1631905090565b60035481565b6000806000806000610efc611360565b600460003373ffffffffffffffffffffffffffffffffffffffff1673ffffffffffffffffffffffffffffffffffffffff1681526020019081526020016000206040518060a00160405290816000820154815260200160018201548152602001600282015481526020016003820154815260200160048201548152505090508060000151816020015182604001518360600151846080015195509550955095509550509091929394565b60025481565b60046020528060005260406000206000915090508060000154908060010154908060020154908060030154908060040154905085565b610fe9610e70565b61105b576040517f08c379a00000000000000000000000000000000000000000000000000000000081526004018080602001828103825260208152602001807f4f776e61626c653a2063616c6c6572206973206e6f7420746865206f776e657281525060200191505060405180910390fd5b6000600354116110b6576040517f08c379a00000000000000000000000000000000000000000000000000000000081526004018080602001828103825260228152602001806113fd6022913960400191505060405180910390fd5b6000600354905060006003819055506110cd610e47565b73ffffffffffffffffffffffffffffffffffffffff166108fc829081150290604051600060405180830381858888f19350505050158015611112573d6000803e3d6000fd5b5050565b61111e610e70565b611190576040517f08c379a00000000000000000000000000000000000000000000000000000000081526004018080602001828103825260208152602001807f4f776e61626c653a2063616c6c6572206973206e6f7420746865206f776e657281525060200191505060405180910390fd5b6111998161121c565b50565b6000806000905060008090505b60058160ff161015611212576000848260ff16602081106111c657fe5b1a60f81b60f81c60ff16101580156111f757506012848260ff16602081106111ea57fe5b1a60f81b60f81c60ff1611155b156112055781806001019250505b80806001019150506111a9565b5080915050919050565b600073ffffffffffffffffffffffffffffffffffffffff168173ffffffffffffffffffffffffffffffffffffffff1614156112a2576040517f08c379a00000000000000000000000000000000000000000000000000000000081526004018080602001828103825260268152602001806113906026913960400191505060405180910390fd5b8073ffffffffffffffffffffffffffffffffffffffff166000809054906101000a900473ffffffffffffffffffffffffffffffffffffffff1673ffffffffffffffffffffffffffffffffffffffff167f8be0079c531659141344cd1fd0a4f28419497f9722a3daafe3b4186f6b6457e060405160405180910390a3806000806101000a81548173ffffffffffffffffffffffffffffffffffffffff021916908373ffffffffffffffffffffffffffffffffffffffff16021790555050565b6040518060a001604052806000815260200160008152602001600081526020016000815260200160008152509056fe4f776e61626c653a206e6577206f776e657220697320746865207a65726f20616464726573734d696e696d756d207469636b657420707269636520697320302e30303030312065746865725469636b657473206f6e6c7920636f6e7461696e2063656c6c73203020746f2031314e6f20646f6e6174696f6e7320666f72206f776e657220746f207769746864726177a165627a7a72305820105e4c31f351d460157d8c56ae01d8ff4d7892e8f89435f44a0c7cf694cf327e0029",
  "source": "pragma solidity >=0.4.21 <0.6.0;\n\nimport 'openzeppelin-solidity/contracts/ownership/Ownable.sol';\n\n/** @title Scratch Lottery */\ncontract ScratchLottery is Ownable {\n    uint public minTicketPrice = .00001 ether;\n    uint public ticketCount = 0;\n    /** amount withdrawable by contract owner */\n    uint public donationsToOwner = 0 ether;\n\n    struct Ticket {\n        uint id; //ticket number, unique to player (address)\n        uint blockNumber; // block number at time of buying ticket\n        uint redeemableAt; // block height when user can redeem ticket\n        uint redeemedAt; // timestamp of when user redeemed ticket\n        uint price; // ticket price as specified by player\n    }\n\n    mapping(address => Ticket) public players;\n\n    event TicketPurchased(address player, uint id);\n    event DonationReceived();\n    event TicketRedeemed(address player, uint id, uint value);\n\n    function() external payable { }\n\n    function balance () public view returns (uint) {\n        return address(this).balance;\n    }\n\n    /**\n        Accepts donations and increments the amount withdrawable\n        by contract owner\n    */\n    function donateToOwner() public payable {\n        donationsToOwner += msg.value;\n        emit DonationReceived();\n    }\n\n    function donateToContract() public payable {\n        emit DonationReceived();\n    }\n\n    /**\n        Withdraws all funds that contrat owner is allowed to access.\n        Players must specifically choose to donate to owner to give them access.\n    */\n    function withdrawDonationsToOwner() public payable onlyOwner {\n        require(donationsToOwner > 0, 'No donations for owner to withdraw');\n        uint amountToWithdraw = donationsToOwner;\n        donationsToOwner = 0;\n        address(uint160(owner())).transfer(amountToWithdraw);\n    }\n\n    function purchaseTicket() public payable {\n        // require payment to run\n\n        require(msg.value >= minTicketPrice, 'Minimum ticket price is 0.00001 ether');\n\n        ticketCount++;\n\n        players[msg.sender] = Ticket({\n            id: ticketCount,\n            blockNumber: block.number,\n            redeemableAt: block.number + 1,\n            redeemedAt: 0,\n            price: msg.value\n        });\n\n        emit TicketPurchased(msg.sender, ticketCount);\n    }\n\n    function getTicket() public view returns (\n        uint id,\n        uint blockNumber,\n        uint redeemableAt,\n        uint redeemedAt,\n        uint price\n    ) {\n        Ticket memory ticket = players[msg.sender];\n        return (ticket.id, ticket.blockNumber, ticket.redeemableAt, ticket.redeemedAt, ticket.price);\n    }\n\n    /**\n        @dev counts the number of values between 0 and 18 in the first 5 digits of a 32 byte hex hash\n    */\n    function countTargetsInFirst5Bytes(bytes32 _hash) internal pure returns(uint8) {\n        uint8 count = 0;\n        for(uint8 i = 0; i < 5; i++) {\n            if(uint8(_hash[i]) >= 0 && uint8(_hash[i]) <= 18) {\n                count++;\n            }\n        }\n        return count;\n    }\n\n    /**\n     * given 3 unique cells on a ticket,\n     * awards a win if hashes of all 3 cells contain the same number of zeros in their hash\n     * prize is <ticket.price> ^ number of targets\n     */\n    function redeemWin(uint _index1, uint _index2, uint _index3) public {\n        require(\n            _index1 != _index2 && _index2 != _index3 && _index1 != _index3,\n            'Must provide 3 unique cells'\n        );\n        require(\n            _index1 < 12 && _index2 < 12 && _index3 < 12,\n            'Tickets only contain cells 0 to 11'\n        );\n        Ticket memory ticket = players[msg.sender];\n        require(ticket.id > 0, 'You have no ticket');\n        require(ticket.redeemableAt <= block.number, 'Ticket not mined yet');\n        require(ticket.redeemedAt == 0, 'Ticket already redeemed');\n        bytes32 nextBlockHash = blockhash(ticket.redeemableAt);\n\n        require(\n            nextBlockHash != 0x0000000000000000000000000000000000000000000000000000000000000000,\n            'Ticket is expired'\n        );\n        // get the number of bytes that are between 0 and 18 (inclusive) in the first 5 bytes of each cell\n        bytes32 _hash1 = keccak256(abi.encodePacked(msg.sender,ticket.id,_index1,nextBlockHash));\n        uint count1 = countTargetsInFirst5Bytes(_hash1);\n\n        bytes32 _hash2 = keccak256(abi.encodePacked(msg.sender,ticket.id,_index2,nextBlockHash));\n        uint count2 = countTargetsInFirst5Bytes(_hash2);\n\n        bytes32 _hash3 = keccak256(abi.encodePacked(msg.sender,ticket.id,_index3,nextBlockHash));\n        uint count3 = countTargetsInFirst5Bytes(_hash3);\n\n        // make sure number of zeros for all claimed cells match\n        require(count1 == count2 && count2 == count3, '3 matches required to win');\n        // mark the ticket as redeemed\n        require(count1 > 0, 'Ticket is not a winner');\n        uint payout = ticket.price * (10 ** (count1 - 1));\n        if(payout > address(this).balance) {\n            payout = address(this).balance;\n        }\n        players[msg.sender].redeemedAt = block.number;\n        msg.sender.transfer(payout);\n        emit TicketRedeemed(msg.sender, ticket.id, payout);\n    }\n}\n",
  "sourcePath": "/home/chris/crunchy/eth-scratch-lottery/contracts/ScratchLottery.sol",
  "compiler": {
    "name": "solc",
    "version": "0.5.8+commit.23d335f2.Emscripten.clang"
  },
  "schemaVersion": "3.0.10",
  "updatedAt": "2019-06-16T16:18:35.684Z",
  "devdoc": {
    "methods": {
      "isOwner()": {
        "details": "Returns true if the caller is the current owner."
      },
      "owner()": {
        "details": "Returns the address of the current owner."
      },
      "renounceOwnership()": {
        "details": "Leaves the contract without owner. It will not be possible to call `onlyOwner` functions anymore. Can only be called by the current owner.     * > Note: Renouncing ownership will leave the contract without an owner, thereby removing any functionality that is only available to the owner."
      },
      "transferOwnership(address)": {
        "details": "Transfers ownership of the contract to a new account (`newOwner`). Can only be called by the current owner."
      }
    },
    "title": "Scratch Lottery "
  },
  "userdoc": {
    "methods": {
      "donateToOwner()": {
        "notice": "Accepts donations and increments the amount withdrawable by contract owner"
      },
      "redeemWin(uint256,uint256,uint256)": {
        "notice": "given 3 unique cells on a ticket, awards a win if hashes of all 3 cells contain the same number of zeros in their hash prize is <ticket.price> ^ number of targets"
      },
      "withdrawDonationsToOwner()": {
        "notice": "Withdraws all funds that contrat owner is allowed to access. Players must specifically choose to donate to owner to give them access."
      }
    }
  }
}