{
  "contractName": "ScratchLottery",
  "abi": [
    {
      "constant": true,
      "inputs": [],
      "name": "ticketPrice",
      "outputs": [
        {
          "name": "",
          "type": "uint256"
        }
      ],
      "payable": false,
      "stateMutability": "view",
      "type": "function"
    },
    {
      "constant": true,
      "inputs": [],
      "name": "prizeMultiplier",
      "outputs": [
        {
          "name": "",
          "type": "uint256"
        }
      ],
      "payable": false,
      "stateMutability": "view",
      "type": "function"
    },
    {
      "constant": false,
      "inputs": [],
      "name": "renounceOwnership",
      "outputs": [],
      "payable": false,
      "stateMutability": "nonpayable",
      "type": "function"
    },
    {
      "constant": true,
      "inputs": [],
      "name": "owner",
      "outputs": [
        {
          "name": "",
          "type": "address"
        }
      ],
      "payable": false,
      "stateMutability": "view",
      "type": "function"
    },
    {
      "constant": true,
      "inputs": [],
      "name": "isOwner",
      "outputs": [
        {
          "name": "",
          "type": "bool"
        }
      ],
      "payable": false,
      "stateMutability": "view",
      "type": "function"
    },
    {
      "constant": true,
      "inputs": [],
      "name": "ticketCount",
      "outputs": [
        {
          "name": "",
          "type": "uint256"
        }
      ],
      "payable": false,
      "stateMutability": "view",
      "type": "function"
    },
    {
      "constant": true,
      "inputs": [
        {
          "name": "",
          "type": "address"
        }
      ],
      "name": "players",
      "outputs": [
        {
          "name": "id",
          "type": "uint256"
        },
        {
          "name": "blockNumber",
          "type": "uint256"
        },
        {
          "name": "redeemableAt",
          "type": "uint256"
        },
        {
          "name": "redeemedAt",
          "type": "uint256"
        }
      ],
      "payable": false,
      "stateMutability": "view",
      "type": "function"
    },
    {
      "constant": false,
      "inputs": [
        {
          "name": "newOwner",
          "type": "address"
        }
      ],
      "name": "transferOwnership",
      "outputs": [],
      "payable": false,
      "stateMutability": "nonpayable",
      "type": "function"
    },
    {
      "payable": true,
      "stateMutability": "payable",
      "type": "fallback"
    },
    {
      "anonymous": false,
      "inputs": [
        {
          "indexed": false,
          "name": "player",
          "type": "address"
        },
        {
          "indexed": false,
          "name": "id",
          "type": "uint256"
        }
      ],
      "name": "TicketPurchased",
      "type": "event"
    },
    {
      "anonymous": false,
      "inputs": [
        {
          "indexed": false,
          "name": "player",
          "type": "address"
        },
        {
          "indexed": false,
          "name": "id",
          "type": "uint256"
        },
        {
          "indexed": false,
          "name": "value",
          "type": "uint256"
        }
      ],
      "name": "TicketRedeemed",
      "type": "event"
    },
    {
      "anonymous": false,
      "inputs": [
        {
          "indexed": true,
          "name": "previousOwner",
          "type": "address"
        },
        {
          "indexed": true,
          "name": "newOwner",
          "type": "address"
        }
      ],
      "name": "OwnershipTransferred",
      "type": "event"
    },
    {
      "constant": true,
      "inputs": [],
      "name": "balance",
      "outputs": [
        {
          "name": "",
          "type": "uint256"
        }
      ],
      "payable": false,
      "stateMutability": "view",
      "type": "function"
    },
    {
      "constant": false,
      "inputs": [
        {
          "name": "amount",
          "type": "uint256"
        }
      ],
      "name": "withdraw",
      "outputs": [
        {
          "name": "",
          "type": "bool"
        }
      ],
      "payable": true,
      "stateMutability": "payable",
      "type": "function"
    },
    {
      "constant": false,
      "inputs": [],
      "name": "purchaseTicket",
      "outputs": [],
      "payable": true,
      "stateMutability": "payable",
      "type": "function"
    },
    {
      "constant": true,
      "inputs": [],
      "name": "getTicket",
      "outputs": [
        {
          "name": "id",
          "type": "uint256"
        },
        {
          "name": "blockNumber",
          "type": "uint256"
        },
        {
          "name": "redeemableAt",
          "type": "uint256"
        },
        {
          "name": "redeemedAt",
          "type": "uint256"
        }
      ],
      "payable": false,
      "stateMutability": "view",
      "type": "function"
    },
    {
      "constant": false,
      "inputs": [
        {
          "name": "_match1",
          "type": "uint256"
        },
        {
          "name": "_match2",
          "type": "uint256"
        },
        {
          "name": "_match3",
          "type": "uint256"
        }
      ],
      "name": "redeemWin",
      "outputs": [],
      "payable": false,
      "stateMutability": "nonpayable",
      "type": "function"
    }
  ],
  "bytecode": "0x60806040526611c37937e080006001556611c37937e0800060025560006003556706f05b59d3b20000600455336000806101000a81548173ffffffffffffffffffffffffffffffffffffffff021916908373ffffffffffffffffffffffffffffffffffffffff1602179055506000809054906101000a900473ffffffffffffffffffffffffffffffffffffffff1673ffffffffffffffffffffffffffffffffffffffff16600073ffffffffffffffffffffffffffffffffffffffff167f8be0079c531659141344cd1fd0a4f28419497f9722a3daafe3b4186f6b6457e060405160405180910390a3611398806100f66000396000f3fe6080604052600436106100c25760003560e01c80638da5cb5b1161007f578063c002c4d611610059578063c002c4d614610281578063cfbd900f146102c1578063e2eb41ff146102ec578063f2fde38b14610366576100c2565b80638da5cb5b146101d05780638f32d59b14610227578063b69ef8a814610256576100c2565b806310692744146100c45780631209b1f61461011357806321846c761461013e5780632e1a7d4d1461014857806350dae4a01461018e578063715018a6146101b9575b005b3480156100d057600080fd5b50610111600480360360608110156100e757600080fd5b810190808035906020019092919080359060200190929190803590602001909291905050506103b7565b005b34801561011f57600080fd5b50610128610b2d565b6040518082815260200191505060405180910390f35b610146610b33565b005b6101746004803603602081101561015e57600080fd5b8101908080359060200190929190505050610d08565b604051808215151515815260200191505060405180910390f35b34801561019a57600080fd5b506101a3610e1f565b6040518082815260200191505060405180910390f35b3480156101c557600080fd5b506101ce610e25565b005b3480156101dc57600080fd5b506101e5610f5e565b604051808273ffffffffffffffffffffffffffffffffffffffff1673ffffffffffffffffffffffffffffffffffffffff16815260200191505060405180910390f35b34801561023357600080fd5b5061023c610f87565b604051808215151515815260200191505060405180910390f35b34801561026257600080fd5b5061026b610fde565b6040518082815260200191505060405180910390f35b34801561028d57600080fd5b50610296610ffd565b6040518085815260200184815260200183815260200182815260200194505050505060405180910390f35b3480156102cd57600080fd5b506102d66110a2565b6040518082815260200191505060405180910390f35b3480156102f857600080fd5b5061033b6004803603602081101561030f57600080fd5b81019080803573ffffffffffffffffffffffffffffffffffffffff1690602001909291905050506110a8565b6040518085815260200184815260200183815260200182815260200194505050505060405180910390f35b34801561037257600080fd5b506103b56004803603602081101561038957600080fd5b81019080803573ffffffffffffffffffffffffffffffffffffffff1690602001909291905050506110d8565b005b6103bf6112fc565b600560003373ffffffffffffffffffffffffffffffffffffffff1673ffffffffffffffffffffffffffffffffffffffff16815260200190815260200160002060405180608001604052908160008201548152602001600182015481526020016002820154815260200160038201548152505090506000816000015114156104ae576040517f08c379a00000000000000000000000000000000000000000000000000000000081526004018080602001828103825260128152602001807f596f752068617665206e6f207469636b6574000000000000000000000000000081525060200191505060405180910390fd5b4381604001511115610528576040517f08c379a00000000000000000000000000000000000000000000000000000000081526004018080602001828103825260148152602001807f5469636b6574206e6f74206d696e65642079657400000000000000000000000081525060200191505060405180910390fd5b60008160600151146105a2576040517f08c379a00000000000000000000000000000000000000000000000000000000081526004018080602001828103825260178152602001807f5469636b657420616c72656164792072656465656d656400000000000000000081525060200191505060405180910390fd5b8284141580156105b25750818314155b80156105be5750818414155b610630576040517f08c379a000000000000000000000000000000000000000000000000000000000815260040180806020018281038252601b8152602001807f4d7573742070726f76696465203320756e697175652063656c6c73000000000081525060200191505060405180910390fd5b600c841080156106405750600c83105b801561064c5750600c82105b6106a1576040517f08c379a000000000000000000000000000000000000000000000000000000000815260040180806020018281038252602281526020018061134b6022913960400191505060405180910390fd5b60008160400151604051602001808281526020019150506040516020818303038152906040528051906020012090506000801b811415610749576040517f08c379a00000000000000000000000000000000000000000000000000000000081526004018080602001828103825260118152602001807f5469636b6574206973206578706972656400000000000000000000000000000081525060200191505060405180910390fd5b60003383600001518784604051602001808573ffffffffffffffffffffffffffffffffffffffff1673ffffffffffffffffffffffffffffffffffffffff1660601b815260140184815260200183815260200182815260200194505050505060405160208183030381529060405280519060200120905060006107ca8261115e565b60ff16905060003385600001518886604051602001808573ffffffffffffffffffffffffffffffffffffffff1673ffffffffffffffffffffffffffffffffffffffff1660601b815260140184815260200183815260200182815260200194505050505060405160208183030381529060405280519060200120905060006108508261115e565b905060003387600001518988604051602001808573ffffffffffffffffffffffffffffffffffffffff1673ffffffffffffffffffffffffffffffffffffffff1660601b815260140184815260200183815260200182815260200194505050505060405160208183030381529060405280519060200120905060006108d38261115e565b90508260ff16851480156108ec57508060ff168360ff16145b61095e576040517f08c379a00000000000000000000000000000000000000000000000000000000081526004018080602001828103825260198152602001807f33206d61746368657320726571756972656420746f2077696e0000000000000081525060200191505060405180910390fd5b600085116109d4576040517f08c379a00000000000000000000000000000000000000000000000000000000081526004018080602001828103825260168152602001807f5469636b6574206973206e6f7420612077696e6e65720000000000000000000081525060200191505060405180910390fd5b43600560003373ffffffffffffffffffffffffffffffffffffffff1673ffffffffffffffffffffffffffffffffffffffff16815260200190815260200160002060030181905550600085600a0a6002540290503073ffffffffffffffffffffffffffffffffffffffff1631811115610a61573073ffffffffffffffffffffffffffffffffffffffff163190505b3373ffffffffffffffffffffffffffffffffffffffff166108fc829081150290604051600060405180830381858888f19350505050158015610aa7573d6000803e3d6000fd5b507fc486cbcc73b5497f564228f5833a8766da2c87c2b5669ce5838d50bdf396f074338a6000015183604051808473ffffffffffffffffffffffffffffffffffffffff1673ffffffffffffffffffffffffffffffffffffffff168152602001838152602001828152602001935050505060405180910390a1505050505050505050505050565b60015481565b600154341015610bab576040517f08c379a00000000000000000000000000000000000000000000000000000000081526004018080602001828103825260168152602001807f5469636b65747320636f737420302e303035206574680000000000000000000081525060200191505060405180910390fd5b600360008154809291906001019190505550604051806080016040528060035481526020014381526020016001430181526020016000815250600560003373ffffffffffffffffffffffffffffffffffffffff1673ffffffffffffffffffffffffffffffffffffffff168152602001908152602001600020600082015181600001556020820151816001015560408201518160020155606082015181600301559050503373ffffffffffffffffffffffffffffffffffffffff166108fc60015434039081150290604051600060405180830381858888f19350505050158015610c98573d6000803e3d6000fd5b507f0668f5b446eb814fe35b3206f43f14bd8567ba04ddaf7a3ee56516929ab22ccb33600354604051808373ffffffffffffffffffffffffffffffffffffffff1673ffffffffffffffffffffffffffffffffffffffff1681526020018281526020019250505060405180910390a1565b6000610d12610f87565b610d84576040517f08c379a00000000000000000000000000000000000000000000000000000000081526004018080602001828103825260208152602001807f4f776e61626c653a2063616c6c6572206973206e6f7420746865206f776e657281525060200191505060405180910390fd5b60008290503073ffffffffffffffffffffffffffffffffffffffff1631831115610dc3573073ffffffffffffffffffffffffffffffffffffffff163190505b610dcb610f5e565b73ffffffffffffffffffffffffffffffffffffffff166108fc60045483039081150290604051600060405180830381858888f19350505050158015610e14573d6000803e3d6000fd5b506001915050919050565b60025481565b610e2d610f87565b610e9f576040517f08c379a00000000000000000000000000000000000000000000000000000000081526004018080602001828103825260208152602001807f4f776e61626c653a2063616c6c6572206973206e6f7420746865206f776e657281525060200191505060405180910390fd5b600073ffffffffffffffffffffffffffffffffffffffff166000809054906101000a900473ffffffffffffffffffffffffffffffffffffffff1673ffffffffffffffffffffffffffffffffffffffff167f8be0079c531659141344cd1fd0a4f28419497f9722a3daafe3b4186f6b6457e060405160405180910390a360008060006101000a81548173ffffffffffffffffffffffffffffffffffffffff021916908373ffffffffffffffffffffffffffffffffffffffff160217905550565b60008060009054906101000a900473ffffffffffffffffffffffffffffffffffffffff16905090565b60008060009054906101000a900473ffffffffffffffffffffffffffffffffffffffff1673ffffffffffffffffffffffffffffffffffffffff163373ffffffffffffffffffffffffffffffffffffffff1614905090565b60003073ffffffffffffffffffffffffffffffffffffffff1631905090565b60008060008061100b6112fc565b600560003373ffffffffffffffffffffffffffffffffffffffff1673ffffffffffffffffffffffffffffffffffffffff1681526020019081526020016000206040518060800160405290816000820154815260200160018201548152602001600282015481526020016003820154815250509050806000015181602001518260400151836060015194509450945094505090919293565b60035481565b60056020528060005260406000206000915090508060000154908060010154908060020154908060030154905084565b6110e0610f87565b611152576040517f08c379a00000000000000000000000000000000000000000000000000000000081526004018080602001828103825260208152602001807f4f776e61626c653a2063616c6c6572206973206e6f7420746865206f776e657281525060200191505060405180910390fd5b61115b816111b8565b50565b6000806000905060008090505b60058160ff1610156111ae576000848260ff166020811061118857fe5b1a60f81b60f81c60ff1614156111a15781806001019250505b808060010191505061116b565b5080915050919050565b600073ffffffffffffffffffffffffffffffffffffffff168173ffffffffffffffffffffffffffffffffffffffff16141561123e576040517f08c379a00000000000000000000000000000000000000000000000000000000081526004018080602001828103825260268152602001806113256026913960400191505060405180910390fd5b8073ffffffffffffffffffffffffffffffffffffffff166000809054906101000a900473ffffffffffffffffffffffffffffffffffffffff1673ffffffffffffffffffffffffffffffffffffffff167f8be0079c531659141344cd1fd0a4f28419497f9722a3daafe3b4186f6b6457e060405160405180910390a3806000806101000a81548173ffffffffffffffffffffffffffffffffffffffff021916908373ffffffffffffffffffffffffffffffffffffffff16021790555050565b604051806080016040528060008152602001600081526020016000815260200160008152509056fe4f776e61626c653a206e6577206f776e657220697320746865207a65726f20616464726573735469636b657473206f6e6c7920636f6e7461696e2063656c6c73203020746f203131a165627a7a72305820c694858b9788b423250855b33a7430c4f4d71bd9dc6c60d57e9b5c5c8446ebe30029",
  "source": "pragma solidity >=0.4.21 <0.6.0;\n\nimport 'openzeppelin-solidity/contracts/ownership/Ownable.sol';\n\n/** @title Scratch Lottery */\ncontract ScratchLottery is Ownable {\n    // .005 eth = 5000000000000000 wei\n    uint public ticketPrice = .005 ether;\n    uint public prizeMultiplier = .005 ether;\n    uint public ticketCount = 0;\n    uint float = .5 ether;\n\n    struct Ticket {\n        uint id; //ticket number, unique to player (address)\n        uint blockNumber; // block number at time of buying ticket\n        uint redeemableAt; // block height when user can redeem ticket\n        uint redeemedAt; // timestamp of when user redeemed ticket\n    }\n\n    mapping(address => Ticket) public players;\n\n    event TicketPurchased(address player, uint id);\n    event TicketRedeemed(address player, uint id, uint value);\n\n    function() external payable { }\n\n    function balance () public view returns (uint) {\n        return address(this).balance;\n    }\n\n    function withdraw(uint amount) public payable onlyOwner returns(bool) {\n        uint payout = amount;\n        if(amount > address(this).balance) {\n            payout = address(this).balance;\n        }\n        address(uint160(owner())).transfer(payout - float);\n        return true;\n    }\n\n    function purchaseTicket() public payable {\n        // require payment to run\n        require(msg.value >= ticketPrice, 'Tickets cost 0.005 eth');\n\n        ticketCount++;\n\n        players[msg.sender] = Ticket({\n            id: ticketCount,\n            blockNumber: block.number,\n            redeemableAt: block.number + 1,\n            redeemedAt: 0\n        });\n\n        // return any overpayment to the sender\n        msg.sender.transfer(msg.value - ticketPrice);\n        emit TicketPurchased(msg.sender, ticketCount);\n    }\n\n    function getTicket() public view returns (\n        uint id,\n        uint blockNumber,\n        uint redeemableAt,\n        uint redeemedAt\n    ) {\n        Ticket memory ticket = players[msg.sender];\n        return (ticket.id, ticket.blockNumber, ticket.redeemableAt, ticket.redeemedAt);\n    }\n\n    function countZerosInFirst5Bytes(bytes32 _hash) internal pure returns(uint8) {\n        uint8 numZeros = 0;\n        for(uint8 i = 0; i < 5; i++) {\n            if(uint8(_hash[i]) == 0) {\n                numZeros++;\n            }\n        }\n        return numZeros;\n    }\n    /**\n     * given 3 unique cells on a ticket,\n     * awards a win if hashes of all 3 cells contain the same number of zeros in their hash\n     * prize is .05 ether * number of zeros\n     */\n    function redeemWin(uint _match1, uint _match2, uint _match3) public {\n        Ticket memory ticket = players[msg.sender];\n        require(ticket.id != 0, 'You have no ticket');\n        require(ticket.redeemableAt <= block.number, 'Ticket not mined yet');\n        require(ticket.redeemedAt == 0, 'Ticket already redeemed');\n        require(\n            _match1 != _match2 && _match2 != _match3 && _match1 != _match3,\n            'Must provide 3 unique cells'\n        );\n        require(\n            _match1 < 12 && _match2 < 12 && _match3 < 12,\n            'Tickets only contain cells 0 to 11'\n        );\n        bytes32 nextBlockHash = keccak256(abi.encodePacked((ticket.redeemableAt)));\n\n        require(\n            nextBlockHash != 0x0000000000000000000000000000000000000000000000000000000000000000,\n            'Ticket is expired'\n        );\n        // get the number of zeros in the first 10 bytes of each claimed cell\n        bytes32 _hash1 = keccak256(abi.encodePacked(msg.sender,ticket.id,_match1,nextBlockHash));\n        uint zeros1 = countZerosInFirst5Bytes(_hash1);\n\n        bytes32 _hash2 = keccak256(abi.encodePacked(msg.sender,ticket.id,_match2,nextBlockHash));\n        uint8 zeros2 = countZerosInFirst5Bytes(_hash2);\n\n        bytes32 _hash3 = keccak256(abi.encodePacked(msg.sender,ticket.id,_match3,nextBlockHash));\n        uint8 zeros3 = countZerosInFirst5Bytes(_hash3);\n\n        // make sure number of zeros for all claimed cells match\n        require(zeros1 == zeros2 && zeros2 == zeros3, '3 matches required to win');\n        // mark the ticket as redeemed\n        require(zeros1 > 0, 'Ticket is not a winner');\n        players[msg.sender].redeemedAt = block.number;\n        uint payout = prizeMultiplier * (10 ** zeros1);\n        if(payout > address(this).balance) {\n            payout = address(this).balance;\n        }\n        msg.sender.transfer(payout);\n        emit TicketRedeemed(msg.sender, ticket.id, payout);\n    }\n}\n",
  "sourcePath": "/home/chris/crunchy/eth-scratch-lottery/contracts/ScratchLottery.sol",
  "compiler": {
    "name": "solc",
    "version": "0.5.8+commit.23d335f2.Emscripten.clang"
  },
  "schemaVersion": "3.0.10",
  "updatedAt": "2019-06-12T13:37:50.382Z",
  "devdoc": {
    "methods": {
      "isOwner()": {
        "details": "Returns true if the caller is the current owner."
      },
      "owner()": {
        "details": "Returns the address of the current owner."
      },
      "renounceOwnership()": {
        "details": "Leaves the contract without owner. It will not be possible to call `onlyOwner` functions anymore. Can only be called by the current owner.     * > Note: Renouncing ownership will leave the contract without an owner, thereby removing any functionality that is only available to the owner."
      },
      "transferOwnership(address)": {
        "details": "Transfers ownership of the contract to a new account (`newOwner`). Can only be called by the current owner."
      }
    },
    "title": "Scratch Lottery "
  },
  "userdoc": {
    "methods": {
      "redeemWin(uint256,uint256,uint256)": {
        "notice": "given 3 unique cells on a ticket, awards a win if hashes of all 3 cells contain the same number of zeros in their hash prize is .05 ether * number of zeros"
      }
    }
  }
}