{
  "contractName": "ScratchLottery",
  "abi": [
    {
      "constant": true,
      "inputs": [],
      "name": "ticketPrice",
      "outputs": [
        {
          "name": "",
          "type": "uint256"
        }
      ],
      "payable": false,
      "stateMutability": "view",
      "type": "function"
    },
    {
      "constant": true,
      "inputs": [],
      "name": "prizeMultiplier",
      "outputs": [
        {
          "name": "",
          "type": "uint256"
        }
      ],
      "payable": false,
      "stateMutability": "view",
      "type": "function"
    },
    {
      "constant": true,
      "inputs": [],
      "name": "chancesPerTicket",
      "outputs": [
        {
          "name": "",
          "type": "uint256"
        }
      ],
      "payable": false,
      "stateMutability": "view",
      "type": "function"
    },
    {
      "constant": true,
      "inputs": [
        {
          "name": "",
          "type": "address"
        }
      ],
      "name": "players",
      "outputs": [
        {
          "name": "playerAddress",
          "type": "address"
        },
        {
          "name": "ticketCount",
          "type": "uint256"
        }
      ],
      "payable": false,
      "stateMutability": "view",
      "type": "function"
    },
    {
      "inputs": [],
      "payable": false,
      "stateMutability": "nonpayable",
      "type": "constructor"
    },
    {
      "anonymous": false,
      "inputs": [
        {
          "indexed": false,
          "name": "player",
          "type": "address"
        },
        {
          "indexed": false,
          "name": "id",
          "type": "uint256"
        },
        {
          "indexed": false,
          "name": "",
          "type": "uint256"
        }
      ],
      "name": "TicketPurchased",
      "type": "event"
    },
    {
      "anonymous": false,
      "inputs": [
        {
          "indexed": false,
          "name": "bidder",
          "type": "address"
        },
        {
          "indexed": false,
          "name": "amount",
          "type": "uint256"
        }
      ],
      "name": "TicketRedeemed",
      "type": "event"
    },
    {
      "constant": false,
      "inputs": [],
      "name": "purchaseTicket",
      "outputs": [],
      "payable": true,
      "stateMutability": "payable",
      "type": "function"
    },
    {
      "constant": true,
      "inputs": [],
      "name": "getTicketCount",
      "outputs": [
        {
          "name": "",
          "type": "uint256"
        }
      ],
      "payable": false,
      "stateMutability": "view",
      "type": "function"
    },
    {
      "constant": true,
      "inputs": [
        {
          "name": "ticketId",
          "type": "uint256"
        }
      ],
      "name": "getTicket",
      "outputs": [
        {
          "name": "id",
          "type": "uint256"
        },
        {
          "name": "blockNumber",
          "type": "uint256"
        },
        {
          "name": "redeemableAt",
          "type": "uint256"
        },
        {
          "name": "redeemedAt",
          "type": "uint256"
        }
      ],
      "payable": false,
      "stateMutability": "view",
      "type": "function"
    },
    {
      "constant": true,
      "inputs": [
        {
          "name": "_hash",
          "type": "bytes32"
        }
      ],
      "name": "countZerosInFirst5Bytes",
      "outputs": [
        {
          "name": "",
          "type": "uint8"
        }
      ],
      "payable": false,
      "stateMutability": "pure",
      "type": "function"
    },
    {
      "constant": true,
      "inputs": [],
      "name": "countZeros",
      "outputs": [
        {
          "name": "",
          "type": "uint8"
        },
        {
          "name": "",
          "type": "bytes32"
        },
        {
          "name": "",
          "type": "uint256"
        }
      ],
      "payable": false,
      "stateMutability": "view",
      "type": "function"
    },
    {
      "constant": false,
      "inputs": [
        {
          "name": "ticketId",
          "type": "uint256"
        },
        {
          "name": "_match1",
          "type": "uint256"
        },
        {
          "name": "_match2",
          "type": "uint256"
        },
        {
          "name": "_match3",
          "type": "uint256"
        }
      ],
      "name": "redeemWin",
      "outputs": [],
      "payable": false,
      "stateMutability": "nonpayable",
      "type": "function"
    }
  ],
  "bytecode": "0x608060405234801561001057600080fd5b5066038d7ea4c6800060008190555066b1a2bc2ec50000600181905550600c600281905550610d63806100446000396000f3fe6080604052600436106100915760003560e01c80637dc379fa116100595780637dc379fa14610160578063d7098618146101c4578063e2eb41ff146101ef578063ea3a0f3014610287578063eb5e0951146102dc57610091565b80631209b1f61461009657806321846c76146100c157806321c63a47146100cb57806333979264146100f657806350dae4a014610135575b600080fd5b3480156100a257600080fd5b506100ab610335565b6040518082815260200191505060405180910390f35b6100c961033b565b005b3480156100d757600080fd5b506100e0610684565b6040518082815260200191505060405180910390f35b34801561010257600080fd5b5061010b6106ce565b604051808460ff1660ff168152602001838152602001828152602001935050505060405180910390f35b34801561014157600080fd5b5061014a61075d565b6040518082815260200191505060405180910390f35b34801561016c57600080fd5b506101996004803603602081101561018357600080fd5b8101908080359060200190929190505050610763565b6040518085815260200184815260200183815260200182815260200194505050505060405180910390f35b3480156101d057600080fd5b506101d961081d565b6040518082815260200191505060405180910390f35b3480156101fb57600080fd5b5061023e6004803603602081101561021257600080fd5b81019080803573ffffffffffffffffffffffffffffffffffffffff169060200190929190505050610823565b604051808373ffffffffffffffffffffffffffffffffffffffff1673ffffffffffffffffffffffffffffffffffffffff1681526020018281526020019250505060405180910390f35b34801561029357600080fd5b506102c0600480360360208110156102aa57600080fd5b8101908080359060200190929190505050610867565b604051808260ff1660ff16815260200191505060405180910390f35b3480156102e857600080fd5b50610333600480360360808110156102ff57600080fd5b81019080803590602001909291908035906020019092919080359060200190929190803590602001909291905050506108c1565b005b60005481565b6000543410156103b3576040517f08c379a00000000000000000000000000000000000000000000000000000000081526004018080602001828103825260168152602001807f5469636b65747320636f737420302e303031206574680000000000000000000081525060200191505060405180910390fd5b6000600360003373ffffffffffffffffffffffffffffffffffffffff1673ffffffffffffffffffffffffffffffffffffffff1681526020019081526020016000206001015414156104be5760405180604001604052803373ffffffffffffffffffffffffffffffffffffffff1681526020016000815250600360003373ffffffffffffffffffffffffffffffffffffffff1673ffffffffffffffffffffffffffffffffffffffff16815260200190815260200160002060008201518160000160006101000a81548173ffffffffffffffffffffffffffffffffffffffff021916908373ffffffffffffffffffffffffffffffffffffffff160217905550602082015181600101559050505b600360003373ffffffffffffffffffffffffffffffffffffffff1673ffffffffffffffffffffffffffffffffffffffff168152602001908152602001600020600101600081548092919060010191905055506040518060800160405280600360003373ffffffffffffffffffffffffffffffffffffffff1673ffffffffffffffffffffffffffffffffffffffff1681526020019081526020016000206001015481526020014381526020016001430181526020016000815250600360003373ffffffffffffffffffffffffffffffffffffffff1673ffffffffffffffffffffffffffffffffffffffff1681526020019081526020016000206002016000600360003373ffffffffffffffffffffffffffffffffffffffff1673ffffffffffffffffffffffffffffffffffffffff168152602001908152602001600020600101548152602001908152602001600020600082015181600001556020820151816001015560408201518160020155606082015181600301559050503373ffffffffffffffffffffffffffffffffffffffff166108fc60005434039081150290604051600060405180830381858888f19350505050158015610681573d6000803e3d6000fd5b50565b6000600360003373ffffffffffffffffffffffffffffffffffffffff1673ffffffffffffffffffffffffffffffffffffffff16815260200190815260200160002060010154905090565b600080600080600090506000436040516020018082815260200191505060405160208183030381529060405280519060200120905060008090505b60058160ff16101561074c576000828260ff166020811061072657fe5b1a60f81b60f81c60ff16141561073f5782806001019350505b8080600101915050610709565b508181439450945094505050909192565b60015481565b600080600080610771610d0f565b600360003373ffffffffffffffffffffffffffffffffffffffff1673ffffffffffffffffffffffffffffffffffffffff1681526020019081526020016000206002016000878152602001908152602001600020604051806080016040529081600082015481526020016001820154815260200160028201548152602001600382015481525050905080600001518160200151826040015183606001519450945094509450509193509193565b60025481565b60036020528060005260406000206000915090508060000160009054906101000a900473ffffffffffffffffffffffffffffffffffffffff16908060010154905082565b6000806000905060008090505b60058160ff1610156108b7576000848260ff166020811061089157fe5b1a60f81b60f81c60ff1614156108aa5781806001019250505b8080600101915050610874565b5080915050919050565b6108c9610d0f565b600360003373ffffffffffffffffffffffffffffffffffffffff1673ffffffffffffffffffffffffffffffffffffffff1681526020019081526020016000206002016000868152602001908152602001600020604051806080016040529081600082015481526020016001820154815260200160028201548152602001600382015481525050905043816040015111156109cb576040517f08c379a00000000000000000000000000000000000000000000000000000000081526004018080602001828103825260148152602001807f5469636b6574206e6f74206d696e65642079657400000000000000000000000081525060200191505060405180910390fd5b6000816060015114610a45576040517f08c379a00000000000000000000000000000000000000000000000000000000081526004018080602001828103825260178152602001807f5469636b657420616c72656164792072656465656d656400000000000000000081525060200191505060405180910390fd5b60008160400151409050600033878784604051602001808573ffffffffffffffffffffffffffffffffffffffff1673ffffffffffffffffffffffffffffffffffffffff1660601b81526014018481526020018381526020018281526020019450505050506040516020818303038152906040528051906020012090506000610acc82610867565b9050600033898886604051602001808573ffffffffffffffffffffffffffffffffffffffff1673ffffffffffffffffffffffffffffffffffffffff1660601b81526014018481526020018381526020018281526020019450505050506040516020818303038152906040528051906020012090506000610b4b82610867565b90506000338b8988604051602001808573ffffffffffffffffffffffffffffffffffffffff1673ffffffffffffffffffffffffffffffffffffffff1660601b81526014018481526020018381526020018281526020019450505050506040516020818303038152906040528051906020012090506000610bca82610867565b90508260ff168560ff16148015610be657508060ff168360ff16145b610c58576040517f08c379a00000000000000000000000000000000000000000000000000000000081526004018080602001828103825260198152602001807f33206d61746368657320726571756972656420746f2077696e0000000000000081525060200191505060405180910390fd5b43600360003373ffffffffffffffffffffffffffffffffffffffff1673ffffffffffffffffffffffffffffffffffffffff16815260200190815260200160002060020160008e8152602001908152602001600020600301819055503373ffffffffffffffffffffffffffffffffffffffff166108fc8660ff16600154029081150290604051600060405180830381858888f19350505050158015610d00573d6000803e3d6000fd5b50505050505050505050505050565b604051806080016040528060008152602001600081526020016000815260200160008152509056fea165627a7a723058204da27078a2c5c593f30bb69f04f7cf861ea5b51f170908d2ff26950d0ac4dff10029",
  "source": "pragma solidity >=0.4.21 <0.6.0;\n\n/** @title Scratch Lottery */\ncontract ScratchLottery {\n    uint public ticketPrice;\n    uint public prizeMultiplier;\n    uint public chancesPerTicket;\n\n    struct Ticket {\n        uint id; //ticket number, unique to player (address)\n        uint blockNumber; // block number at time of buying ticket\n        uint redeemableAt; // block height when user can redeem ticket\n        uint redeemedAt; // timestamp of when user redeemed ticket\n    }\n\n    struct Player {\n        address playerAddress; //ethereum address of player\n        uint ticketCount; //number of tickets created to date\n        mapping(uint => Ticket) tickets;\n    }\n\n    mapping(address => Player) public players;\n\n    event TicketPurchased(address player, uint id, uint);\n    event TicketRedeemed(address bidder, uint amount);\n\n    constructor() public {\n        // .001 eth = 1000000000000000 wei\n        ticketPrice = .001 ether;\n        // .1 eth = 100000000000000000 wei\n        prizeMultiplier = .05 ether;\n        chancesPerTicket = 12;\n    }\n\n    function purchaseTicket() public payable {\n        // require payment to run\n        require(msg.value >= ticketPrice, 'Tickets cost 0.001 eth');\n\n        // create the player if they dont exist\n        // they dont exist unless they have at least one ticket\n        if(players[msg.sender].ticketCount == 0) {\n            players[msg.sender] = Player({\n                playerAddress: msg.sender,\n                ticketCount: 0\n            });\n        }\n\n        players[msg.sender].ticketCount ++;\n        players[msg.sender].tickets[players[msg.sender].ticketCount] = Ticket({\n            id: players[msg.sender].ticketCount,\n            blockNumber: block.number,\n            redeemableAt: block.number + 1,\n            redeemedAt: 0\n        });\n        // return any overpayment to the sender\n        msg.sender.transfer(msg.value - ticketPrice);\n    }\n\n    function getTicketCount() public view returns (uint){\n        return players[msg.sender].ticketCount;\n    }\n\n    function getTicket(uint ticketId) public view returns (\n        uint id,\n        uint blockNumber,\n        uint redeemableAt,\n        uint redeemedAt\n    ) {\n        Ticket memory ticket = players[msg.sender].tickets[ticketId];\n        return (ticket.id, ticket.blockNumber, ticket.redeemableAt, ticket.redeemedAt);\n    }\n\n    function countZerosInFirst5Bytes(bytes32 _hash) public pure returns(uint8) {\n        uint8 numZeros = 0;\n        for(uint8 i = 0; i < 5; i++) {\n            if(uint8(_hash[i]) == 0) {\n                numZeros++;\n            }\n        }\n        return numZeros;\n    }\n\n    function countZeros() public view returns(uint8, bytes32, uint) {\n        uint8 numZeros = 0;\n        bytes32 _hash = keccak256(abi.encodePacked(block.number));\n        for(uint8 i = 0; i < 5; i++) {\n            if(uint8(_hash[i]) == 0) {\n                numZeros++;\n            }\n        }\n        return (numZeros, _hash, block.number);\n    }\n\n\n    function redeemWin(uint ticketId, uint _match1, uint _match2, uint _match3) public {\n        Ticket memory ticket = players[msg.sender].tickets[ticketId];\n        require(ticket.redeemableAt <= block.number, 'Ticket not mined yet');\n        require(ticket.redeemedAt == 0, 'Ticket already redeemed');\n        bytes32 nextBlockHash = blockhash(ticket.redeemableAt);\n\n        // get the number of zeros in the first 5 bytes of each claimed match\n        bytes32 _hash1 = keccak256(abi.encodePacked(msg.sender,ticketId,_match1,nextBlockHash));\n        uint8 zeros1 = countZerosInFirst5Bytes(_hash1);\n\n        bytes32 _hash2 = keccak256(abi.encodePacked(msg.sender,ticketId,_match2,nextBlockHash));\n        uint8 zeros2 = countZerosInFirst5Bytes(_hash2);\n\n        bytes32 _hash3 = keccak256(abi.encodePacked(msg.sender,ticketId,_match3,nextBlockHash));\n        uint8 zeros3 = countZerosInFirst5Bytes(_hash3);\n\n        // make sure all claimed matches actually match\n        require(zeros1 == zeros2 && zeros2 == zeros3, '3 matches required to win');\n        // mark the ticket as redeemed\n        players[msg.sender].tickets[ticketId].redeemedAt = block.number;\n        msg.sender.transfer(prizeMultiplier * zeros1);\n    }\n}\n",
  "sourcePath": "/home/chris/crunchy/eth-scratch-lottery/contracts/ScratchLottery.sol",
  "compiler": {
    "name": "solc",
    "version": "0.5.8+commit.23d335f2.Emscripten.clang"
  },
  "schemaVersion": "3.0.10",
  "updatedAt": "2019-06-10T13:17:06.731Z",
  "devdoc": {
    "methods": {},
    "title": "Scratch Lottery "
  },
  "userdoc": {
    "methods": {}
  }
}