{
  "contractName": "ScratchLottery",
  "abi": [
    {
      "constant": true,
      "inputs": [],
      "name": "ticketPrice",
      "outputs": [
        {
          "name": "",
          "type": "uint256"
        }
      ],
      "payable": false,
      "stateMutability": "view",
      "type": "function"
    },
    {
      "constant": true,
      "inputs": [
        {
          "name": "",
          "type": "address"
        }
      ],
      "name": "players",
      "outputs": [
        {
          "name": "playerAddress",
          "type": "address"
        },
        {
          "name": "ticketCount",
          "type": "uint256"
        }
      ],
      "payable": false,
      "stateMutability": "view",
      "type": "function"
    },
    {
      "constant": true,
      "inputs": [],
      "name": "prize",
      "outputs": [
        {
          "name": "",
          "type": "uint256"
        }
      ],
      "payable": false,
      "stateMutability": "view",
      "type": "function"
    },
    {
      "inputs": [],
      "payable": false,
      "stateMutability": "nonpayable",
      "type": "constructor"
    },
    {
      "constant": false,
      "inputs": [],
      "name": "purchaseTicket",
      "outputs": [],
      "payable": true,
      "stateMutability": "payable",
      "type": "function"
    },
    {
      "constant": true,
      "inputs": [],
      "name": "getTicketCount",
      "outputs": [
        {
          "name": "",
          "type": "uint256"
        }
      ],
      "payable": false,
      "stateMutability": "view",
      "type": "function"
    },
    {
      "constant": true,
      "inputs": [
        {
          "name": "ticketId",
          "type": "uint256"
        }
      ],
      "name": "getTicket",
      "outputs": [
        {
          "name": "id",
          "type": "uint256"
        },
        {
          "name": "blockNumber",
          "type": "uint256"
        },
        {
          "name": "redeemableAt",
          "type": "uint256"
        },
        {
          "name": "redeemedAt",
          "type": "uint256"
        }
      ],
      "payable": false,
      "stateMutability": "view",
      "type": "function"
    }
  ],
  "bytecode": "0x608060405234801561001057600080fd5b5066038d7ea4c6800060008190555067016345785d8a00006001819055506106868061003d6000396000f3fe6080604052600436106100555760003560e01c80631209b1f61461005a57806321846c761461008557806321c63a471461008f5780637dc379fa146100ba578063e2eb41ff1461011e578063e3ac5d26146101b6575b600080fd5b34801561006657600080fd5b5061006f6101e1565b6040518082815260200191505060405180910390f35b61008d6101e7565b005b34801561009b57600080fd5b506100a46104e4565b6040518082815260200191505060405180910390f35b3480156100c657600080fd5b506100f3600480360360208110156100dd57600080fd5b810190808035906020019092919050505061052e565b6040518085815260200184815260200183815260200182815260200194505050505060405180910390f35b34801561012a57600080fd5b5061016d6004803603602081101561014157600080fd5b81019080803573ffffffffffffffffffffffffffffffffffffffff1690602001909291905050506105e8565b604051808373ffffffffffffffffffffffffffffffffffffffff1673ffffffffffffffffffffffffffffffffffffffff1681526020018281526020019250505060405180910390f35b3480156101c257600080fd5b506101cb61062c565b6040518082815260200191505060405180910390f35b60005481565b600054341461025e576040517f08c379a00000000000000000000000000000000000000000000000000000000081526004018080602001828103825260168152602001807f5469636b65747320636f737420302e303031206574680000000000000000000081525060200191505060405180910390fd5b6000600260003373ffffffffffffffffffffffffffffffffffffffff1673ffffffffffffffffffffffffffffffffffffffff1681526020019081526020016000206001015414156103695760405180604001604052803373ffffffffffffffffffffffffffffffffffffffff1681526020016000815250600260003373ffffffffffffffffffffffffffffffffffffffff1673ffffffffffffffffffffffffffffffffffffffff16815260200190815260200160002060008201518160000160006101000a81548173ffffffffffffffffffffffffffffffffffffffff021916908373ffffffffffffffffffffffffffffffffffffffff160217905550602082015181600101559050505b600260003373ffffffffffffffffffffffffffffffffffffffff1673ffffffffffffffffffffffffffffffffffffffff168152602001908152602001600020600101600081548092919060010191905055506040518060800160405280600260003373ffffffffffffffffffffffffffffffffffffffff1673ffffffffffffffffffffffffffffffffffffffff1681526020019081526020016000206001015481526020014381526020016002430181526020016000815250600260003373ffffffffffffffffffffffffffffffffffffffff1673ffffffffffffffffffffffffffffffffffffffff1681526020019081526020016000206002016000600260003373ffffffffffffffffffffffffffffffffffffffff1673ffffffffffffffffffffffffffffffffffffffff16815260200190815260200160002060010154815260200190815260200160002060008201518160000155602082015181600101556040820151816002015560608201518160030155905050565b6000600260003373ffffffffffffffffffffffffffffffffffffffff1673ffffffffffffffffffffffffffffffffffffffff16815260200190815260200160002060010154905090565b60008060008061053c610632565b600260003373ffffffffffffffffffffffffffffffffffffffff1673ffffffffffffffffffffffffffffffffffffffff1681526020019081526020016000206002016000878152602001908152602001600020604051806080016040529081600082015481526020016001820154815260200160028201548152602001600382015481525050905080600001518160200151826040015183606001519450945094509450509193509193565b60026020528060005260406000206000915090508060000160009054906101000a900473ffffffffffffffffffffffffffffffffffffffff16908060010154905082565b60015481565b604051806080016040528060008152602001600081526020016000815260200160008152509056fea165627a7a72305820e80b1d13065025058702e98847bf9f44f85cdb074ada0520ce7d2bbe39b1d2590029",
  "source": "pragma solidity >=0.4.21 <0.6.0;\n\n/** @title Scratch Lottery */\ncontract ScratchLottery {\n    uint public ticketPrice;\n    uint public prize;\n\n    struct Ticket {\n        uint id; //ticket number, unique to player (address)\n        uint blockNumber; // block number at time of buying ticket\n        uint redeemableAt; // block height when user can redeem ticket\n        uint redeemedAt; // timestamp of when user redeemed ticket\n    }\n\n    struct Player {\n        address playerAddress; //ethereum address of player\n        uint ticketCount; //number of tickets created to date\n        mapping(uint => Ticket) tickets;\n    }\n\n    mapping(address => Player) public players;\n\n    constructor() public {\n        // .001 eth = 1000000000000000 wei\n        ticketPrice = .001 ether;\n        // .1 eth = 100000000000000000 wei\n        prize = .1 ether;\n    }\n\n    function purchaseTicket() public payable {\n        // require payment to run\n        require(msg.value == ticketPrice, 'Tickets cost 0.001 eth');\n\n        // create the player if they dont exist\n        if(players[msg.sender].ticketCount == 0) {\n            players[msg.sender] = Player({\n                playerAddress: msg.sender,\n                ticketCount: 0\n            });\n        }\n\n        players[msg.sender].ticketCount ++;\n        players[msg.sender].tickets[players[msg.sender].ticketCount] = Ticket({\n            id: players[msg.sender].ticketCount,\n            blockNumber: block.number,\n            redeemableAt: block.number + 2,\n            redeemedAt: 0\n        });\n    }\n\n    function getTicketCount() public view returns (uint){\n        return players[msg.sender].ticketCount;\n    }\n\n    function getTicket(uint ticketId) public view returns (\n        uint id,\n        uint blockNumber,\n        uint redeemableAt,\n        uint redeemedAt\n    ) {\n        Ticket memory ticket = players[msg.sender].tickets[ticketId];\n        return (ticket.id, ticket.blockNumber, ticket.redeemableAt, ticket.redeemedAt);\n    }\n}\n",
  "sourcePath": "/home/chris/crunchy/eth-scratch-lottery/contracts/ScratchLottery.sol",
  "compiler": {
    "name": "solc",
    "version": "0.5.8+commit.23d335f2.Emscripten.clang"
  },
  "schemaVersion": "3.0.10",
  "updatedAt": "2019-06-09T12:42:33.646Z",
  "devdoc": {
    "methods": {},
    "title": "Scratch Lottery "
  },
  "userdoc": {
    "methods": {}
  }
}