{
  "contractName": "ScratchLottery",
  "abi": [
    {
      "constant": true,
      "inputs": [],
      "name": "ticketPrice",
      "outputs": [
        {
          "name": "",
          "type": "uint256"
        }
      ],
      "payable": false,
      "stateMutability": "view",
      "type": "function"
    },
    {
      "constant": true,
      "inputs": [],
      "name": "prize",
      "outputs": [
        {
          "name": "",
          "type": "uint256"
        }
      ],
      "payable": false,
      "stateMutability": "view",
      "type": "function"
    }
  ],
  "bytecode": "0x608060405266038d7ea4c6800060005567016345785d8a000060015534801561002757600080fd5b5060a7806100366000396000f3fe6080604052348015600f57600080fd5b506004361060325760003560e01c80631209b1f6146037578063e3ac5d26146053575b600080fd5b603d606f565b6040518082815260200191505060405180910390f35b60596075565b6040518082815260200191505060405180910390f35b60005481565b6001548156fea165627a7a723058200ee1eec08b128a32011e78a1d6a1d235425061e74c43f7e71c643053eef8bdd40029",
  "source": "pragma solidity >=0.4.21 <0.6.0;\n\n/** @title Scratch Lottery */\ncontract ScratchLottery {\n    // 1000000000000000 wei = .001 eth\n    uint public ticketPrice = 1000000000000000;\n    // 100000000000000000 wei = .1 eth\n    uint public prize = 100000000000000000;\n}\n",
  "sourcePath": "/home/chris/crunchy/eth-scratch-lottery/contracts/ScratchLottery.sol",
  "compiler": {
    "name": "solc",
    "version": "0.5.8+commit.23d335f2.Emscripten.clang"
  },
  "schemaVersion": "3.0.10",
  "updatedAt": "2019-06-09T11:13:23.974Z",
  "devdoc": {
    "methods": {},
    "title": "Scratch Lottery "
  },
  "userdoc": {
    "methods": {}
  }
}