{
  "contractName": "ScratchLottery",
  "abi": [
    {
      "constant": true,
      "inputs": [],
      "name": "ticketPrice",
      "outputs": [
        {
          "name": "",
          "type": "uint256"
        }
      ],
      "payable": false,
      "stateMutability": "view",
      "type": "function"
    },
    {
      "constant": true,
      "inputs": [],
      "name": "prizeMultiplier",
      "outputs": [
        {
          "name": "",
          "type": "uint256"
        }
      ],
      "payable": false,
      "stateMutability": "view",
      "type": "function"
    },
    {
      "constant": false,
      "inputs": [],
      "name": "renounceOwnership",
      "outputs": [],
      "payable": false,
      "stateMutability": "nonpayable",
      "type": "function"
    },
    {
      "constant": true,
      "inputs": [],
      "name": "owner",
      "outputs": [
        {
          "name": "",
          "type": "address"
        }
      ],
      "payable": false,
      "stateMutability": "view",
      "type": "function"
    },
    {
      "constant": true,
      "inputs": [],
      "name": "isOwner",
      "outputs": [
        {
          "name": "",
          "type": "bool"
        }
      ],
      "payable": false,
      "stateMutability": "view",
      "type": "function"
    },
    {
      "constant": true,
      "inputs": [],
      "name": "ticketCount",
      "outputs": [
        {
          "name": "",
          "type": "uint256"
        }
      ],
      "payable": false,
      "stateMutability": "view",
      "type": "function"
    },
    {
      "constant": true,
      "inputs": [
        {
          "name": "",
          "type": "address"
        }
      ],
      "name": "players",
      "outputs": [
        {
          "name": "id",
          "type": "uint256"
        },
        {
          "name": "blockNumber",
          "type": "uint256"
        },
        {
          "name": "redeemableAt",
          "type": "uint256"
        },
        {
          "name": "redeemedAt",
          "type": "uint256"
        }
      ],
      "payable": false,
      "stateMutability": "view",
      "type": "function"
    },
    {
      "constant": false,
      "inputs": [
        {
          "name": "newOwner",
          "type": "address"
        }
      ],
      "name": "transferOwnership",
      "outputs": [],
      "payable": false,
      "stateMutability": "nonpayable",
      "type": "function"
    },
    {
      "payable": true,
      "stateMutability": "payable",
      "type": "fallback"
    },
    {
      "anonymous": false,
      "inputs": [
        {
          "indexed": false,
          "name": "player",
          "type": "address"
        },
        {
          "indexed": false,
          "name": "id",
          "type": "uint256"
        }
      ],
      "name": "TicketPurchased",
      "type": "event"
    },
    {
      "anonymous": false,
      "inputs": [
        {
          "indexed": false,
          "name": "player",
          "type": "address"
        },
        {
          "indexed": false,
          "name": "id",
          "type": "uint256"
        },
        {
          "indexed": false,
          "name": "value",
          "type": "uint256"
        }
      ],
      "name": "TicketRedeemed",
      "type": "event"
    },
    {
      "anonymous": false,
      "inputs": [
        {
          "indexed": true,
          "name": "previousOwner",
          "type": "address"
        },
        {
          "indexed": true,
          "name": "newOwner",
          "type": "address"
        }
      ],
      "name": "OwnershipTransferred",
      "type": "event"
    },
    {
      "constant": true,
      "inputs": [],
      "name": "balance",
      "outputs": [
        {
          "name": "",
          "type": "uint256"
        }
      ],
      "payable": false,
      "stateMutability": "view",
      "type": "function"
    },
    {
      "constant": true,
      "inputs": [],
      "name": "jackpot",
      "outputs": [
        {
          "name": "",
          "type": "uint256"
        }
      ],
      "payable": false,
      "stateMutability": "view",
      "type": "function"
    },
    {
      "constant": false,
      "inputs": [
        {
          "name": "amount",
          "type": "uint256"
        }
      ],
      "name": "withdraw",
      "outputs": [
        {
          "name": "",
          "type": "bool"
        }
      ],
      "payable": true,
      "stateMutability": "payable",
      "type": "function"
    },
    {
      "constant": false,
      "inputs": [],
      "name": "purchaseTicket",
      "outputs": [],
      "payable": true,
      "stateMutability": "payable",
      "type": "function"
    },
    {
      "constant": true,
      "inputs": [],
      "name": "getTicket",
      "outputs": [
        {
          "name": "id",
          "type": "uint256"
        },
        {
          "name": "blockNumber",
          "type": "uint256"
        },
        {
          "name": "redeemableAt",
          "type": "uint256"
        },
        {
          "name": "redeemedAt",
          "type": "uint256"
        }
      ],
      "payable": false,
      "stateMutability": "view",
      "type": "function"
    },
    {
      "constant": false,
      "inputs": [
        {
          "name": "_index1",
          "type": "uint256"
        },
        {
          "name": "_index2",
          "type": "uint256"
        },
        {
          "name": "_index3",
          "type": "uint256"
        }
      ],
      "name": "redeemWin",
      "outputs": [],
      "payable": false,
      "stateMutability": "nonpayable",
      "type": "function"
    }
  ],
  "bytecode": "0x60806040526611c37937e080006001556611c37937e0800060025560006003556706f05b59d3b20000600455336000806101000a81548173ffffffffffffffffffffffffffffffffffffffff021916908373ffffffffffffffffffffffffffffffffffffffff1602179055506000809054906101000a900473ffffffffffffffffffffffffffffffffffffffff1673ffffffffffffffffffffffffffffffffffffffff16600073ffffffffffffffffffffffffffffffffffffffff167f8be0079c531659141344cd1fd0a4f28419497f9722a3daafe3b4186f6b6457e060405160405180910390a3611430806100f66000396000f3fe6080604052600436106100dd5760003560e01c80638da5cb5b1161007f578063c002c4d611610059578063c002c4d6146102c7578063cfbd900f14610307578063e2eb41ff14610332578063f2fde38b146103ac576100dd565b80638da5cb5b146102165780638f32d59b1461026d578063b69ef8a81461029c576100dd565b80632e1a7d4d116100bb5780632e1a7d4d1461016357806350dae4a0146101a95780636b31ee01146101d4578063715018a6146101ff576100dd565b806310692744146100df5780631209b1f61461012e57806321846c7614610159575b005b3480156100eb57600080fd5b5061012c6004803603606081101561010257600080fd5b810190808035906020019092919080359060200190929190803590602001909291905050506103fd565b005b34801561013a57600080fd5b50610143610b4d565b6040518082815260200191505060405180910390f35b610161610b53565b005b61018f6004803603602081101561017957600080fd5b8101908080359060200190929190505050610d28565b604051808215151515815260200191505060405180910390f35b3480156101b557600080fd5b506101be610e3f565b6040518082815260200191505060405180910390f35b3480156101e057600080fd5b506101e9610e45565b6040518082815260200191505060405180910390f35b34801561020b57600080fd5b50610214610e97565b005b34801561022257600080fd5b5061022b610fd0565b604051808273ffffffffffffffffffffffffffffffffffffffff1673ffffffffffffffffffffffffffffffffffffffff16815260200191505060405180910390f35b34801561027957600080fd5b50610282610ff9565b604051808215151515815260200191505060405180910390f35b3480156102a857600080fd5b506102b1611050565b6040518082815260200191505060405180910390f35b3480156102d357600080fd5b506102dc61106f565b6040518085815260200184815260200183815260200182815260200194505050505060405180910390f35b34801561031357600080fd5b5061031c611114565b6040518082815260200191505060405180910390f35b34801561033e57600080fd5b506103816004803603602081101561035557600080fd5b81019080803573ffffffffffffffffffffffffffffffffffffffff16906020019092919050505061111a565b6040518085815260200184815260200183815260200182815260200194505050505060405180910390f35b3480156103b857600080fd5b506103fb600480360360208110156103cf57600080fd5b81019080803573ffffffffffffffffffffffffffffffffffffffff16906020019092919050505061114a565b005b81831415801561040d5750808214155b80156104195750808314155b61048b576040517f08c379a000000000000000000000000000000000000000000000000000000000815260040180806020018281038252601b8152602001807f4d7573742070726f76696465203320756e697175652063656c6c73000000000081525060200191505060405180910390fd5b600c8310801561049b5750600c82105b80156104a75750600c81105b6104fc576040517f08c379a00000000000000000000000000000000000000000000000000000000081526004018080602001828103825260228152602001806113e36022913960400191505060405180910390fd5b610504611394565b600560003373ffffffffffffffffffffffffffffffffffffffff1673ffffffffffffffffffffffffffffffffffffffff168152602001908152602001600020604051806080016040529081600082015481526020016001820154815260200160028201548152602001600382015481525050905060008160000151116105f2576040517f08c379a00000000000000000000000000000000000000000000000000000000081526004018080602001828103825260128152602001807f596f752068617665206e6f207469636b6574000000000000000000000000000081525060200191505060405180910390fd5b438160400151111561066c576040517f08c379a00000000000000000000000000000000000000000000000000000000081526004018080602001828103825260148152602001807f5469636b6574206e6f74206d696e65642079657400000000000000000000000081525060200191505060405180910390fd5b60008160600151146106e6576040517f08c379a00000000000000000000000000000000000000000000000000000000081526004018080602001828103825260178152602001807f5469636b657420616c72656164792072656465656d656400000000000000000081525060200191505060405180910390fd5b600081604001514090506000801b811415610769576040517f08c379a00000000000000000000000000000000000000000000000000000000081526004018080602001828103825260118152602001807f5469636b6574206973206578706972656400000000000000000000000000000081525060200191505060405180910390fd5b60003383600001518784604051602001808573ffffffffffffffffffffffffffffffffffffffff1673ffffffffffffffffffffffffffffffffffffffff1660601b815260140184815260200183815260200182815260200194505050505060405160208183030381529060405280519060200120905060006107ea826111d0565b60ff16905060003385600001518886604051602001808573ffffffffffffffffffffffffffffffffffffffff1673ffffffffffffffffffffffffffffffffffffffff1660601b81526014018481526020018381526020018281526020019450505050506040516020818303038152906040528051906020012090506000610870826111d0565b60ff16905060003387600001518988604051602001808573ffffffffffffffffffffffffffffffffffffffff1673ffffffffffffffffffffffffffffffffffffffff1660601b815260140184815260200183815260200182815260200194505050505060405160208183030381529060405280519060200120905060006108f6826111d0565b60ff169050828514801561090957508083145b61097b576040517f08c379a00000000000000000000000000000000000000000000000000000000081526004018080602001828103825260198152602001807f33206d61746368657320726571756972656420746f2077696e0000000000000081525060200191505060405180910390fd5b600085116109f1576040517f08c379a00000000000000000000000000000000000000000000000000000000081526004018080602001828103825260168152602001807f5469636b6574206973206e6f7420612077696e6e65720000000000000000000081525060200191505060405180910390fd5b600060018603600a0a6002540290503073ffffffffffffffffffffffffffffffffffffffff1631811115610a3a573073ffffffffffffffffffffffffffffffffffffffff163190505b43600560003373ffffffffffffffffffffffffffffffffffffffff1673ffffffffffffffffffffffffffffffffffffffff168152602001908152602001600020600301819055503373ffffffffffffffffffffffffffffffffffffffff166108fc829081150290604051600060405180830381858888f19350505050158015610ac7573d6000803e3d6000fd5b507fc486cbcc73b5497f564228f5833a8766da2c87c2b5669ce5838d50bdf396f074338a6000015183604051808473ffffffffffffffffffffffffffffffffffffffff1673ffffffffffffffffffffffffffffffffffffffff168152602001838152602001828152602001935050505060405180910390a1505050505050505050505050565b60015481565b600154341015610bcb576040517f08c379a00000000000000000000000000000000000000000000000000000000081526004018080602001828103825260168152602001807f5469636b65747320636f737420302e303035206574680000000000000000000081525060200191505060405180910390fd5b600360008154809291906001019190505550604051806080016040528060035481526020014381526020016001430181526020016000815250600560003373ffffffffffffffffffffffffffffffffffffffff1673ffffffffffffffffffffffffffffffffffffffff168152602001908152602001600020600082015181600001556020820151816001015560408201518160020155606082015181600301559050503373ffffffffffffffffffffffffffffffffffffffff166108fc60015434039081150290604051600060405180830381858888f19350505050158015610cb8573d6000803e3d6000fd5b507f0668f5b446eb814fe35b3206f43f14bd8567ba04ddaf7a3ee56516929ab22ccb33600354604051808373ffffffffffffffffffffffffffffffffffffffff1673ffffffffffffffffffffffffffffffffffffffff1681526020018281526020019250505060405180910390a1565b6000610d32610ff9565b610da4576040517f08c379a00000000000000000000000000000000000000000000000000000000081526004018080602001828103825260208152602001807f4f776e61626c653a2063616c6c6572206973206e6f7420746865206f776e657281525060200191505060405180910390fd5b60008290503073ffffffffffffffffffffffffffffffffffffffff1631831115610de3573073ffffffffffffffffffffffffffffffffffffffff163190505b610deb610fd0565b73ffffffffffffffffffffffffffffffffffffffff166108fc60045483039081150290604051600060405180830381858888f19350505050158015610e34573d6000803e3d6000fd5b506001915050919050565b60025481565b60008060056002540a9050803073ffffffffffffffffffffffffffffffffffffffff16311015610e8f573073ffffffffffffffffffffffffffffffffffffffff1631915050610e94565b809150505b90565b610e9f610ff9565b610f11576040517f08c379a00000000000000000000000000000000000000000000000000000000081526004018080602001828103825260208152602001807f4f776e61626c653a2063616c6c6572206973206e6f7420746865206f776e657281525060200191505060405180910390fd5b600073ffffffffffffffffffffffffffffffffffffffff166000809054906101000a900473ffffffffffffffffffffffffffffffffffffffff1673ffffffffffffffffffffffffffffffffffffffff167f8be0079c531659141344cd1fd0a4f28419497f9722a3daafe3b4186f6b6457e060405160405180910390a360008060006101000a81548173ffffffffffffffffffffffffffffffffffffffff021916908373ffffffffffffffffffffffffffffffffffffffff160217905550565b60008060009054906101000a900473ffffffffffffffffffffffffffffffffffffffff16905090565b60008060009054906101000a900473ffffffffffffffffffffffffffffffffffffffff1673ffffffffffffffffffffffffffffffffffffffff163373ffffffffffffffffffffffffffffffffffffffff1614905090565b60003073ffffffffffffffffffffffffffffffffffffffff1631905090565b60008060008061107d611394565b600560003373ffffffffffffffffffffffffffffffffffffffff1673ffffffffffffffffffffffffffffffffffffffff1681526020019081526020016000206040518060800160405290816000820154815260200160018201548152602001600282015481526020016003820154815250509050806000015181602001518260400151836060015194509450945094505090919293565b60035481565b60056020528060005260406000206000915090508060000154908060010154908060020154908060030154905084565b611152610ff9565b6111c4576040517f08c379a00000000000000000000000000000000000000000000000000000000081526004018080602001828103825260208152602001807f4f776e61626c653a2063616c6c6572206973206e6f7420746865206f776e657281525060200191505060405180910390fd5b6111cd81611250565b50565b6000806000905060008090505b60058160ff161015611246576000848260ff16602081106111fa57fe5b1a60f81b60f81c60ff161015801561122b5750600c848260ff166020811061121e57fe5b1a60f81b60f81c60ff1611155b156112395781806001019250505b80806001019150506111dd565b5080915050919050565b600073ffffffffffffffffffffffffffffffffffffffff168173ffffffffffffffffffffffffffffffffffffffff1614156112d6576040517f08c379a00000000000000000000000000000000000000000000000000000000081526004018080602001828103825260268152602001806113bd6026913960400191505060405180910390fd5b8073ffffffffffffffffffffffffffffffffffffffff166000809054906101000a900473ffffffffffffffffffffffffffffffffffffffff1673ffffffffffffffffffffffffffffffffffffffff167f8be0079c531659141344cd1fd0a4f28419497f9722a3daafe3b4186f6b6457e060405160405180910390a3806000806101000a81548173ffffffffffffffffffffffffffffffffffffffff021916908373ffffffffffffffffffffffffffffffffffffffff16021790555050565b604051806080016040528060008152602001600081526020016000815260200160008152509056fe4f776e61626c653a206e6577206f776e657220697320746865207a65726f20616464726573735469636b657473206f6e6c7920636f6e7461696e2063656c6c73203020746f203131a165627a7a723058208d4f144fa2118b94421fc19f394fac794a1fbfbcb29dad00e9b5310a902dd7ee0029",
  "source": "pragma solidity >=0.4.21 <0.6.0;\n\nimport 'openzeppelin-solidity/contracts/ownership/Ownable.sol';\n\n/** @title Scratch Lottery */\ncontract ScratchLottery is Ownable {\n    // .005 eth = 5000000000000000 wei\n    uint public ticketPrice = .005 ether;\n    uint public prizeMultiplier = .005 ether;\n    uint public ticketCount = 0;\n    uint payoutFloat = .5 ether;\n\n    struct Ticket {\n        uint id; //ticket number, unique to player (address)\n        uint blockNumber; // block number at time of buying ticket\n        uint redeemableAt; // block height when user can redeem ticket\n        uint redeemedAt; // timestamp of when user redeemed ticket\n    }\n\n    mapping(address => Ticket) public players;\n\n    event TicketPurchased(address player, uint id);\n    event TicketRedeemed(address player, uint id, uint value);\n\n    function() external payable { }\n\n    function balance () public view returns (uint) {\n        return address(this).balance;\n    }\n\n    function jackpot () public view returns (uint) {\n        uint maxPayout = prizeMultiplier ** 5;\n        if(address(this).balance < maxPayout) {\n            return address(this).balance;\n        }\n        return maxPayout;\n    }\n\n    function withdraw(uint amount) public payable onlyOwner returns(bool) {\n        uint payout = amount;\n        if(amount > address(this).balance) {\n            payout = address(this).balance;\n        }\n        address(uint160(owner())).transfer(payout - payoutFloat);\n        return true;\n    }\n\n    function purchaseTicket() public payable {\n        // require payment to run\n        require(msg.value >= ticketPrice, 'Tickets cost 0.005 eth');\n\n        ticketCount++;\n\n        players[msg.sender] = Ticket({\n            id: ticketCount,\n            blockNumber: block.number,\n            redeemableAt: block.number + 1,\n            redeemedAt: 0\n        });\n\n        // return any overpayment to the sender\n        msg.sender.transfer(msg.value - ticketPrice);\n        emit TicketPurchased(msg.sender, ticketCount);\n    }\n\n    function getTicket() public view returns (\n        uint id,\n        uint blockNumber,\n        uint redeemableAt,\n        uint redeemedAt\n    ) {\n        Ticket memory ticket = players[msg.sender];\n        return (ticket.id, ticket.blockNumber, ticket.redeemableAt, ticket.redeemedAt);\n    }\n\n    function countTargetsInFirst5Bytes(bytes32 _hash) internal pure returns(uint8) {\n        uint8 count = 0;\n        for(uint8 i = 0; i < 5; i++) {\n            if(uint8(_hash[i]) >= 0 && uint8(_hash[i]) <= 12) {\n                count++;\n            }\n        }\n        return count;\n    }\n    /**\n     * given 3 unique cells on a ticket,\n     * awards a win if hashes of all 3 cells contain the same number of zeros in their hash\n     * prize is .05 ether * number of zeros\n     */\n    function redeemWin(uint _index1, uint _index2, uint _index3) public {\n        require(\n            _index1 != _index2 && _index2 != _index3 && _index1 != _index3,\n            'Must provide 3 unique cells'\n        );\n        require(\n            _index1 < 12 && _index2 < 12 && _index3 < 12,\n            'Tickets only contain cells 0 to 11'\n        );\n        Ticket memory ticket = players[msg.sender];\n        require(ticket.id > 0, 'You have no ticket');\n        require(ticket.redeemableAt <= block.number, 'Ticket not mined yet');\n        require(ticket.redeemedAt == 0, 'Ticket already redeemed');\n        bytes32 nextBlockHash = blockhash(ticket.redeemableAt);\n\n        require(\n            nextBlockHash != 0x0000000000000000000000000000000000000000000000000000000000000000,\n            'Ticket is expired'\n        );\n        // get the number of bytes that are between 0 and 8 (inclusive) in the first 5 bytes of each cell\n        bytes32 _hash1 = keccak256(abi.encodePacked(msg.sender,ticket.id,_index1,nextBlockHash));\n        uint count1 = countTargetsInFirst5Bytes(_hash1);\n\n        bytes32 _hash2 = keccak256(abi.encodePacked(msg.sender,ticket.id,_index2,nextBlockHash));\n        uint count2 = countTargetsInFirst5Bytes(_hash2);\n\n        bytes32 _hash3 = keccak256(abi.encodePacked(msg.sender,ticket.id,_index3,nextBlockHash));\n        uint count3 = countTargetsInFirst5Bytes(_hash3);\n\n        // make sure number of zeros for all claimed cells match\n        require(count1 == count2 && count2 == count3, '3 matches required to win');\n        // mark the ticket as redeemed\n        require(count1 > 0, 'Ticket is not a winner');\n        uint payout = prizeMultiplier * (10 ** (count1 - 1));\n        if(payout > address(this).balance) {\n            payout = address(this).balance;\n        }\n        players[msg.sender].redeemedAt = block.number;\n        msg.sender.transfer(payout);\n        emit TicketRedeemed(msg.sender, ticket.id, payout);\n    }\n}\n",
  "sourcePath": "/home/chris/crunchy/eth-scratch-lottery/contracts/ScratchLottery.sol",
  "compiler": {
    "name": "solc",
    "version": "0.5.8+commit.23d335f2.Emscripten.clang"
  },
  "schemaVersion": "3.0.10",
  "updatedAt": "2019-06-15T06:01:23.969Z",
  "devdoc": {
    "methods": {
      "isOwner()": {
        "details": "Returns true if the caller is the current owner."
      },
      "owner()": {
        "details": "Returns the address of the current owner."
      },
      "renounceOwnership()": {
        "details": "Leaves the contract without owner. It will not be possible to call `onlyOwner` functions anymore. Can only be called by the current owner.     * > Note: Renouncing ownership will leave the contract without an owner, thereby removing any functionality that is only available to the owner."
      },
      "transferOwnership(address)": {
        "details": "Transfers ownership of the contract to a new account (`newOwner`). Can only be called by the current owner."
      }
    },
    "title": "Scratch Lottery "
  },
  "userdoc": {
    "methods": {
      "redeemWin(uint256,uint256,uint256)": {
        "notice": "given 3 unique cells on a ticket, awards a win if hashes of all 3 cells contain the same number of zeros in their hash prize is .05 ether * number of zeros"
      }
    }
  }
}