{
  "contractName": "ScratchLottery",
  "abi": [
    {
      "constant": true,
      "inputs": [],
      "name": "ticketPrice",
      "outputs": [
        {
          "name": "",
          "type": "uint256"
        }
      ],
      "payable": false,
      "stateMutability": "view",
      "type": "function"
    },
    {
      "constant": true,
      "inputs": [],
      "name": "prizeMultiplier",
      "outputs": [
        {
          "name": "",
          "type": "uint256"
        }
      ],
      "payable": false,
      "stateMutability": "view",
      "type": "function"
    },
    {
      "constant": true,
      "inputs": [
        {
          "name": "",
          "type": "address"
        }
      ],
      "name": "players",
      "outputs": [
        {
          "name": "playerAddress",
          "type": "address"
        },
        {
          "name": "ticketCount",
          "type": "uint256"
        }
      ],
      "payable": false,
      "stateMutability": "view",
      "type": "function"
    },
    {
      "inputs": [],
      "payable": false,
      "stateMutability": "nonpayable",
      "type": "constructor"
    },
    {
      "anonymous": false,
      "inputs": [
        {
          "indexed": false,
          "name": "player",
          "type": "address"
        },
        {
          "indexed": false,
          "name": "id",
          "type": "uint256"
        }
      ],
      "name": "TicketPurchased",
      "type": "event"
    },
    {
      "anonymous": false,
      "inputs": [
        {
          "indexed": false,
          "name": "player",
          "type": "address"
        },
        {
          "indexed": false,
          "name": "value",
          "type": "uint256"
        }
      ],
      "name": "TicketRedeemed",
      "type": "event"
    },
    {
      "constant": false,
      "inputs": [],
      "name": "purchaseTicket",
      "outputs": [],
      "payable": true,
      "stateMutability": "payable",
      "type": "function"
    },
    {
      "constant": true,
      "inputs": [],
      "name": "getTicketCount",
      "outputs": [
        {
          "name": "",
          "type": "uint256"
        }
      ],
      "payable": false,
      "stateMutability": "view",
      "type": "function"
    },
    {
      "constant": true,
      "inputs": [
        {
          "name": "ticketId",
          "type": "uint256"
        }
      ],
      "name": "getTicket",
      "outputs": [
        {
          "name": "id",
          "type": "uint256"
        },
        {
          "name": "blockNumber",
          "type": "uint256"
        },
        {
          "name": "redeemableAt",
          "type": "uint256"
        },
        {
          "name": "redeemedAt",
          "type": "uint256"
        }
      ],
      "payable": false,
      "stateMutability": "view",
      "type": "function"
    },
    {
      "constant": true,
      "inputs": [
        {
          "name": "_hash",
          "type": "bytes32"
        }
      ],
      "name": "countZerosInFirst10Bytes",
      "outputs": [
        {
          "name": "",
          "type": "uint8"
        }
      ],
      "payable": false,
      "stateMutability": "pure",
      "type": "function"
    },
    {
      "constant": false,
      "inputs": [
        {
          "name": "ticketId",
          "type": "uint256"
        },
        {
          "name": "_match1",
          "type": "uint256"
        },
        {
          "name": "_match2",
          "type": "uint256"
        },
        {
          "name": "_match3",
          "type": "uint256"
        }
      ],
      "name": "redeemWin",
      "outputs": [],
      "payable": false,
      "stateMutability": "nonpayable",
      "type": "function"
    }
  ],
  "bytecode": "0x608060405234801561001057600080fd5b5066038d7ea4c6800060008190555066b1a2bc2ec50000600181905550610e518061003c6000396000f3fe60806040526004361061007b5760003560e01c8063678135d81161004e578063678135d81461010b5780637dc379fa14610160578063e2eb41ff146101c4578063eb5e09511461025c5761007b565b80631209b1f61461008057806321846c76146100ab57806321c63a47146100b557806350dae4a0146100e0575b600080fd5b34801561008c57600080fd5b506100956102b5565b6040518082815260200191505060405180910390f35b6100b36102bb565b005b3480156100c157600080fd5b506100ca610675565b6040518082815260200191505060405180910390f35b3480156100ec57600080fd5b506100f56106bf565b6040518082815260200191505060405180910390f35b34801561011757600080fd5b506101446004803603602081101561012e57600080fd5b81019080803590602001909291905050506106c5565b604051808260ff1660ff16815260200191505060405180910390f35b34801561016c57600080fd5b506101996004803603602081101561018357600080fd5b810190808035906020019092919050505061071f565b6040518085815260200184815260200183815260200182815260200194505050505060405180910390f35b3480156101d057600080fd5b50610213600480360360208110156101e757600080fd5b81019080803573ffffffffffffffffffffffffffffffffffffffff1690602001909291905050506107d9565b604051808373ffffffffffffffffffffffffffffffffffffffff1673ffffffffffffffffffffffffffffffffffffffff1681526020018281526020019250505060405180910390f35b34801561026857600080fd5b506102b36004803603608081101561027f57600080fd5b810190808035906020019092919080359060200190929190803590602001909291908035906020019092919050505061081d565b005b60005481565b600054341015610333576040517f08c379a00000000000000000000000000000000000000000000000000000000081526004018080602001828103825260168152602001807f5469636b65747320636f737420302e303031206574680000000000000000000081525060200191505060405180910390fd5b6000600260003373ffffffffffffffffffffffffffffffffffffffff1673ffffffffffffffffffffffffffffffffffffffff16815260200190815260200160002060010154141561043e5760405180604001604052803373ffffffffffffffffffffffffffffffffffffffff1681526020016000815250600260003373ffffffffffffffffffffffffffffffffffffffff1673ffffffffffffffffffffffffffffffffffffffff16815260200190815260200160002060008201518160000160006101000a81548173ffffffffffffffffffffffffffffffffffffffff021916908373ffffffffffffffffffffffffffffffffffffffff160217905550602082015181600101559050505b600260003373ffffffffffffffffffffffffffffffffffffffff1673ffffffffffffffffffffffffffffffffffffffff168152602001908152602001600020600101600081548092919060010191905055506000600260003373ffffffffffffffffffffffffffffffffffffffff1673ffffffffffffffffffffffffffffffffffffffff16815260200190815260200160002060010154905060405180608001604052808281526020014381526020016001430181526020016000815250600260003373ffffffffffffffffffffffffffffffffffffffff1673ffffffffffffffffffffffffffffffffffffffff1681526020019081526020016000206002016000600260003373ffffffffffffffffffffffffffffffffffffffff1673ffffffffffffffffffffffffffffffffffffffff168152602001908152602001600020600101548152602001908152602001600020600082015181600001556020820151816001015560408201518160020155606082015181600301559050503373ffffffffffffffffffffffffffffffffffffffff166108fc60005434039081150290604051600060405180830381858888f19350505050158015610606573d6000803e3d6000fd5b507f0668f5b446eb814fe35b3206f43f14bd8567ba04ddaf7a3ee56516929ab22ccb3382604051808373ffffffffffffffffffffffffffffffffffffffff1673ffffffffffffffffffffffffffffffffffffffff1681526020018281526020019250505060405180910390a150565b6000600260003373ffffffffffffffffffffffffffffffffffffffff1673ffffffffffffffffffffffffffffffffffffffff16815260200190815260200160002060010154905090565b60015481565b6000806000905060008090505b600a8160ff161015610715576000848260ff16602081106106ef57fe5b1a60f81b60f81c60ff1614156107085781806001019250505b80806001019150506106d2565b5080915050919050565b60008060008061072d610ddb565b600260003373ffffffffffffffffffffffffffffffffffffffff1673ffffffffffffffffffffffffffffffffffffffff1681526020019081526020016000206002016000878152602001908152602001600020604051806080016040529081600082015481526020016001820154815260200160028201548152602001600382015481525050905080600001518160200151826040015183606001519450945094509450509193509193565b60026020528060005260406000206000915090508060000160009054906101000a900473ffffffffffffffffffffffffffffffffffffffff16908060010154905082565b610825610ddb565b600260003373ffffffffffffffffffffffffffffffffffffffff1673ffffffffffffffffffffffffffffffffffffffff168152602001908152602001600020600201600086815260200190815260200160002060405180608001604052908160008201548152602001600182015481526020016002820154815260200160038201548152505090504381604001511115610927576040517f08c379a00000000000000000000000000000000000000000000000000000000081526004018080602001828103825260148152602001807f5469636b6574206e6f74206d696e65642079657400000000000000000000000081525060200191505060405180910390fd5b60008160600151146109a1576040517f08c379a00000000000000000000000000000000000000000000000000000000081526004018080602001828103825260178152602001807f5469636b657420616c72656164792072656465656d656400000000000000000081525060200191505060405180910390fd5b8284141580156109b15750818314155b80156109bd5750818414155b610a2f576040517f08c379a000000000000000000000000000000000000000000000000000000000815260040180806020018281038252601b8152602001807f4d7573742070726f76696465203320756e697175652063656c6c73000000000081525060200191505060405180910390fd5b600c8411158015610a415750600c8311155b8015610a4e5750600c8211155b610aa3576040517f08c379a0000000000000000000000000000000000000000000000000000000008152600401808060200182810382526022815260200180610e046022913960400191505060405180910390fd5b60008160400151409050600033878784604051602001808573ffffffffffffffffffffffffffffffffffffffff1673ffffffffffffffffffffffffffffffffffffffff1660601b81526014018481526020018381526020018281526020019450505050506040516020818303038152906040528051906020012090506000610b2a826106c5565b9050600033898886604051602001808573ffffffffffffffffffffffffffffffffffffffff1673ffffffffffffffffffffffffffffffffffffffff1660601b81526014018481526020018381526020018281526020019450505050506040516020818303038152906040528051906020012090506000610ba9826106c5565b90506000338b8988604051602001808573ffffffffffffffffffffffffffffffffffffffff1673ffffffffffffffffffffffffffffffffffffffff1660601b81526014018481526020018381526020018281526020019450505050506040516020818303038152906040528051906020012090506000610c28826106c5565b90508260ff168560ff16148015610c4457508060ff168360ff16145b610cb6576040517f08c379a00000000000000000000000000000000000000000000000000000000081526004018080602001828103825260198152602001807f33206d61746368657320726571756972656420746f2077696e0000000000000081525060200191505060405180910390fd5b43600260003373ffffffffffffffffffffffffffffffffffffffff1673ffffffffffffffffffffffffffffffffffffffff16815260200190815260200160002060020160008e8152602001908152602001600020600301819055503373ffffffffffffffffffffffffffffffffffffffff166108fc8660ff16600154029081150290604051600060405180830381858888f19350505050158015610d5e573d6000803e3d6000fd5b507f04c83e3a48b8728bb2e4bf1933322209bd98584759a94f66ef94275e0bf770de3386604051808373ffffffffffffffffffffffffffffffffffffffff1673ffffffffffffffffffffffffffffffffffffffff1681526020018260ff1681526020019250505060405180910390a1505050505050505050505050565b604051806080016040528060008152602001600081526020016000815260200160008152509056fe5469636b657473206f6e6c7920636f6e7461696e2063656c6c73203120746f203132a165627a7a723058203503e92dced2fb309af9d69d5ca4a7988db7e420a8c07d75bd4a57b2bb47feee0029",
  "source": "pragma solidity >=0.4.21 <0.6.0;\n\n/** @title Scratch Lottery */\ncontract ScratchLottery {\n    uint public ticketPrice;\n    uint public prizeMultiplier;\n\n    struct Ticket {\n        uint id; //ticket number, unique to player (address)\n        uint blockNumber; // block number at time of buying ticket\n        uint redeemableAt; // block height when user can redeem ticket\n        uint redeemedAt; // timestamp of when user redeemed ticket\n    }\n\n    struct Player {\n        address playerAddress; //ethereum address of player\n        uint ticketCount; //number of tickets created to date\n        mapping(uint => Ticket) tickets;\n    }\n\n    mapping(address => Player) public players;\n\n    event TicketPurchased(address player, uint id);\n    event TicketRedeemed(address player, uint value);\n\n    constructor() public {\n        // .001 eth = 1000000000000000 wei\n        ticketPrice = .001 ether;\n        // .1 eth = 100000000000000000 wei\n        prizeMultiplier = .05 ether;\n    }\n\n    function purchaseTicket() public payable {\n        // require payment to run\n        require(msg.value >= ticketPrice, 'Tickets cost 0.001 eth');\n\n        // create the player if they dont exist\n        // they dont exist unless they have at least one ticket\n        if(players[msg.sender].ticketCount == 0) {\n            players[msg.sender] = Player({\n                playerAddress: msg.sender,\n                ticketCount: 0\n            });\n        }\n        players[msg.sender].ticketCount ++;\n        uint ticketCount = players[msg.sender].ticketCount;\n        players[msg.sender].tickets[players[msg.sender].ticketCount] = Ticket({\n            id: ticketCount,\n            blockNumber: block.number,\n            redeemableAt: block.number + 1,\n            redeemedAt: 0\n        });\n        // return any overpayment to the sender\n        msg.sender.transfer(msg.value - ticketPrice);\n        emit TicketPurchased(msg.sender, ticketCount);\n    }\n\n    function getTicketCount() public view returns (uint){\n        return players[msg.sender].ticketCount;\n    }\n\n    function getTicket(uint ticketId) public view returns (\n        uint id,\n        uint blockNumber,\n        uint redeemableAt,\n        uint redeemedAt\n    ) {\n        Ticket memory ticket = players[msg.sender].tickets[ticketId];\n        return (ticket.id, ticket.blockNumber, ticket.redeemableAt, ticket.redeemedAt);\n    }\n\n    function countZerosInFirst10Bytes(bytes32 _hash) public pure returns(uint8) {\n        uint8 numZeros = 0;\n        for(uint8 i = 0; i < 10; i++) {\n            if(uint8(_hash[i]) == 0) {\n                numZeros++;\n            }\n        }\n        return numZeros;\n    }\n\n    /**\n     * given 3 unique cells on a ticket,\n     * awards a win if hashes of all 3 cells contain the same number of zeros in their hash\n     * prize is .05 ether * number of zeros\n     */\n    function redeemWin(uint ticketId, uint _match1, uint _match2, uint _match3) public {\n        Ticket memory ticket = players[msg.sender].tickets[ticketId];\n        require(ticket.redeemableAt <= block.number, 'Ticket not mined yet');\n        require(ticket.redeemedAt == 0, 'Ticket already redeemed');\n        require(\n            _match1 != _match2 && _match2 != _match3 && _match1 != _match3,\n            'Must provide 3 unique cells'\n        );\n        require(\n            _match1 <= 12 && _match2 <= 12 && _match3 <= 12,\n            'Tickets only contain cells 1 to 12'\n        );\n        bytes32 nextBlockHash = blockhash(ticket.redeemableAt);\n\n        // get the number of zeros in the first 10 bytes of each claimed cell\n        bytes32 _hash1 = keccak256(abi.encodePacked(msg.sender,ticketId,_match1,nextBlockHash));\n        uint8 zeros1 = countZerosInFirst10Bytes(_hash1);\n\n        bytes32 _hash2 = keccak256(abi.encodePacked(msg.sender,ticketId,_match2,nextBlockHash));\n        uint8 zeros2 = countZerosInFirst10Bytes(_hash2);\n\n        bytes32 _hash3 = keccak256(abi.encodePacked(msg.sender,ticketId,_match3,nextBlockHash));\n        uint8 zeros3 = countZerosInFirst10Bytes(_hash3);\n\n        // make sure number of zeros for all claimed cells match\n        require(zeros1 == zeros2 && zeros2 == zeros3, '3 matches required to win');\n        // mark the ticket as redeemed\n        players[msg.sender].tickets[ticketId].redeemedAt = block.number;\n        msg.sender.transfer(prizeMultiplier * zeros1);\n        emit TicketRedeemed(msg.sender, zeros1);\n    }\n}\n",
  "sourcePath": "/home/chris/crunchy/eth-scratch-lottery/contracts/ScratchLottery.sol",
  "compiler": {
    "name": "solc",
    "version": "0.5.8+commit.23d335f2.Emscripten.clang"
  },
  "schemaVersion": "3.0.10",
  "updatedAt": "2019-06-10T13:28:28.528Z",
  "devdoc": {
    "methods": {},
    "title": "Scratch Lottery "
  },
  "userdoc": {
    "methods": {
      "redeemWin(uint256,uint256,uint256,uint256)": {
        "notice": "given 3 unique cells on a ticket, awards a win if hashes of all 3 cells contain the same number of zeros in their hash prize is .05 ether * number of zeros"
      }
    }
  }
}