{
  "contractName": "ScratchLottery",
  "abi": [
    {
      "constant": true,
      "inputs": [],
      "name": "ticketPrice",
      "outputs": [
        {
          "name": "",
          "type": "uint256"
        }
      ],
      "payable": false,
      "stateMutability": "view",
      "type": "function"
    },
    {
      "constant": true,
      "inputs": [],
      "name": "prizeMultiplier",
      "outputs": [
        {
          "name": "",
          "type": "uint256"
        }
      ],
      "payable": false,
      "stateMutability": "view",
      "type": "function"
    },
    {
      "constant": false,
      "inputs": [],
      "name": "renounceOwnership",
      "outputs": [],
      "payable": false,
      "stateMutability": "nonpayable",
      "type": "function"
    },
    {
      "constant": true,
      "inputs": [],
      "name": "owner",
      "outputs": [
        {
          "name": "",
          "type": "address"
        }
      ],
      "payable": false,
      "stateMutability": "view",
      "type": "function"
    },
    {
      "constant": true,
      "inputs": [],
      "name": "isOwner",
      "outputs": [
        {
          "name": "",
          "type": "bool"
        }
      ],
      "payable": false,
      "stateMutability": "view",
      "type": "function"
    },
    {
      "constant": true,
      "inputs": [],
      "name": "donationsToOwner",
      "outputs": [
        {
          "name": "",
          "type": "uint256"
        }
      ],
      "payable": false,
      "stateMutability": "view",
      "type": "function"
    },
    {
      "constant": true,
      "inputs": [],
      "name": "ticketCount",
      "outputs": [
        {
          "name": "",
          "type": "uint256"
        }
      ],
      "payable": false,
      "stateMutability": "view",
      "type": "function"
    },
    {
      "constant": true,
      "inputs": [
        {
          "name": "",
          "type": "address"
        }
      ],
      "name": "players",
      "outputs": [
        {
          "name": "id",
          "type": "uint256"
        },
        {
          "name": "blockNumber",
          "type": "uint256"
        },
        {
          "name": "redeemableAt",
          "type": "uint256"
        },
        {
          "name": "redeemedAt",
          "type": "uint256"
        }
      ],
      "payable": false,
      "stateMutability": "view",
      "type": "function"
    },
    {
      "constant": false,
      "inputs": [
        {
          "name": "newOwner",
          "type": "address"
        }
      ],
      "name": "transferOwnership",
      "outputs": [],
      "payable": false,
      "stateMutability": "nonpayable",
      "type": "function"
    },
    {
      "payable": true,
      "stateMutability": "payable",
      "type": "fallback"
    },
    {
      "anonymous": false,
      "inputs": [
        {
          "indexed": false,
          "name": "player",
          "type": "address"
        },
        {
          "indexed": false,
          "name": "id",
          "type": "uint256"
        }
      ],
      "name": "TicketPurchased",
      "type": "event"
    },
    {
      "anonymous": false,
      "inputs": [],
      "name": "DonationReceived",
      "type": "event"
    },
    {
      "anonymous": false,
      "inputs": [
        {
          "indexed": false,
          "name": "player",
          "type": "address"
        },
        {
          "indexed": false,
          "name": "id",
          "type": "uint256"
        },
        {
          "indexed": false,
          "name": "value",
          "type": "uint256"
        }
      ],
      "name": "TicketRedeemed",
      "type": "event"
    },
    {
      "anonymous": false,
      "inputs": [
        {
          "indexed": true,
          "name": "previousOwner",
          "type": "address"
        },
        {
          "indexed": true,
          "name": "newOwner",
          "type": "address"
        }
      ],
      "name": "OwnershipTransferred",
      "type": "event"
    },
    {
      "constant": true,
      "inputs": [],
      "name": "balance",
      "outputs": [
        {
          "name": "",
          "type": "uint256"
        }
      ],
      "payable": false,
      "stateMutability": "view",
      "type": "function"
    },
    {
      "constant": false,
      "inputs": [],
      "name": "donateToOwner",
      "outputs": [],
      "payable": true,
      "stateMutability": "payable",
      "type": "function"
    },
    {
      "constant": false,
      "inputs": [],
      "name": "donateToContract",
      "outputs": [],
      "payable": true,
      "stateMutability": "payable",
      "type": "function"
    },
    {
      "constant": true,
      "inputs": [],
      "name": "jackpot",
      "outputs": [
        {
          "name": "",
          "type": "uint256"
        }
      ],
      "payable": false,
      "stateMutability": "view",
      "type": "function"
    },
    {
      "constant": false,
      "inputs": [],
      "name": "withdrawDonationsToOwner",
      "outputs": [],
      "payable": true,
      "stateMutability": "payable",
      "type": "function"
    },
    {
      "constant": false,
      "inputs": [],
      "name": "purchaseTicket",
      "outputs": [],
      "payable": true,
      "stateMutability": "payable",
      "type": "function"
    },
    {
      "constant": true,
      "inputs": [],
      "name": "getTicket",
      "outputs": [
        {
          "name": "id",
          "type": "uint256"
        },
        {
          "name": "blockNumber",
          "type": "uint256"
        },
        {
          "name": "redeemableAt",
          "type": "uint256"
        },
        {
          "name": "redeemedAt",
          "type": "uint256"
        }
      ],
      "payable": false,
      "stateMutability": "view",
      "type": "function"
    },
    {
      "constant": false,
      "inputs": [
        {
          "name": "_index1",
          "type": "uint256"
        },
        {
          "name": "_index2",
          "type": "uint256"
        },
        {
          "name": "_index3",
          "type": "uint256"
        }
      ],
      "name": "redeemWin",
      "outputs": [],
      "payable": false,
      "stateMutability": "nonpayable",
      "type": "function"
    }
  ],
  "bytecode": "0x60806040526611c37937e080006001556611c37937e0800060025560006003556000600455336000806101000a81548173ffffffffffffffffffffffffffffffffffffffff021916908373ffffffffffffffffffffffffffffffffffffffff1602179055506000809054906101000a900473ffffffffffffffffffffffffffffffffffffffff1673ffffffffffffffffffffffffffffffffffffffff16600073ffffffffffffffffffffffffffffffffffffffff167f8be0079c531659141344cd1fd0a4f28419497f9722a3daafe3b4186f6b6457e060405160405180910390a3611506806100ef6000396000f3fe6080604052600436106100fe5760003560e01c80638da5cb5b11610095578063c002c4d611610064578063c002c4d6146102e1578063cfbd900f14610321578063e2eb41ff1461034c578063f0c2b41b146103c6578063f2fde38b146103d0576100fe565b80638da5cb5b146102055780638f32d59b1461025c578063b69ef8a81461028b578063b8f8d723146102b6576100fe565b806350dae4a0116100d157806350dae4a01461018e57806357bb806d146101b95780636b31ee01146101c3578063715018a6146101ee576100fe565b806310692744146101005780631209b1f61461014f57806321846c761461017a5780634dedca2f14610184575b005b34801561010c57600080fd5b5061014d6004803603606081101561012357600080fd5b81019080803590602001909291908035906020019092919080359060200190929190505050610421565b005b34801561015b57600080fd5b50610164610b71565b6040518082815260200191505060405180910390f35b610182610b77565b005b61018c610d4c565b005b34801561019a57600080fd5b506101a3610d7a565b6040518082815260200191505060405180910390f35b6101c1610d80565b005b3480156101cf57600080fd5b506101d8610dbe565b6040518082815260200191505060405180910390f35b3480156101fa57600080fd5b50610203610e10565b005b34801561021157600080fd5b5061021a610f49565b604051808273ffffffffffffffffffffffffffffffffffffffff1673ffffffffffffffffffffffffffffffffffffffff16815260200191505060405180910390f35b34801561026857600080fd5b50610271610f72565b604051808215151515815260200191505060405180910390f35b34801561029757600080fd5b506102a0610fc9565b6040518082815260200191505060405180910390f35b3480156102c257600080fd5b506102cb610fe8565b6040518082815260200191505060405180910390f35b3480156102ed57600080fd5b506102f6610fee565b6040518085815260200184815260200183815260200182815260200194505050505060405180910390f35b34801561032d57600080fd5b50610336611093565b6040518082815260200191505060405180910390f35b34801561035857600080fd5b5061039b6004803603602081101561036f57600080fd5b81019080803573ffffffffffffffffffffffffffffffffffffffff169060200190929190505050611099565b6040518085815260200184815260200183815260200182815260200194505050505060405180910390f35b6103ce6110c9565b005b3480156103dc57600080fd5b5061041f600480360360208110156103f357600080fd5b81019080803573ffffffffffffffffffffffffffffffffffffffff1690602001909291905050506111fe565b005b8183141580156104315750808214155b801561043d5750808314155b6104af576040517f08c379a000000000000000000000000000000000000000000000000000000000815260040180806020018281038252601b8152602001807f4d7573742070726f76696465203320756e697175652063656c6c73000000000081525060200191505060405180910390fd5b600c831080156104bf5750600c82105b80156104cb5750600c81105b610520576040517f08c379a00000000000000000000000000000000000000000000000000000000081526004018080602001828103825260228152602001806114976022913960400191505060405180910390fd5b610528611448565b600560003373ffffffffffffffffffffffffffffffffffffffff1673ffffffffffffffffffffffffffffffffffffffff16815260200190815260200160002060405180608001604052908160008201548152602001600182015481526020016002820154815260200160038201548152505090506000816000015111610616576040517f08c379a00000000000000000000000000000000000000000000000000000000081526004018080602001828103825260128152602001807f596f752068617665206e6f207469636b6574000000000000000000000000000081525060200191505060405180910390fd5b4381604001511115610690576040517f08c379a00000000000000000000000000000000000000000000000000000000081526004018080602001828103825260148152602001807f5469636b6574206e6f74206d696e65642079657400000000000000000000000081525060200191505060405180910390fd5b600081606001511461070a576040517f08c379a00000000000000000000000000000000000000000000000000000000081526004018080602001828103825260178152602001807f5469636b657420616c72656164792072656465656d656400000000000000000081525060200191505060405180910390fd5b600081604001514090506000801b81141561078d576040517f08c379a00000000000000000000000000000000000000000000000000000000081526004018080602001828103825260118152602001807f5469636b6574206973206578706972656400000000000000000000000000000081525060200191505060405180910390fd5b60003383600001518784604051602001808573ffffffffffffffffffffffffffffffffffffffff1673ffffffffffffffffffffffffffffffffffffffff1660601b8152601401848152602001838152602001828152602001945050505050604051602081830303815290604052805190602001209050600061080e82611284565b60ff16905060003385600001518886604051602001808573ffffffffffffffffffffffffffffffffffffffff1673ffffffffffffffffffffffffffffffffffffffff1660601b8152601401848152602001838152602001828152602001945050505050604051602081830303815290604052805190602001209050600061089482611284565b60ff16905060003387600001518988604051602001808573ffffffffffffffffffffffffffffffffffffffff1673ffffffffffffffffffffffffffffffffffffffff1660601b8152601401848152602001838152602001828152602001945050505050604051602081830303815290604052805190602001209050600061091a82611284565b60ff169050828514801561092d57508083145b61099f576040517f08c379a00000000000000000000000000000000000000000000000000000000081526004018080602001828103825260198152602001807f33206d61746368657320726571756972656420746f2077696e0000000000000081525060200191505060405180910390fd5b60008511610a15576040517f08c379a00000000000000000000000000000000000000000000000000000000081526004018080602001828103825260168152602001807f5469636b6574206973206e6f7420612077696e6e65720000000000000000000081525060200191505060405180910390fd5b600060018603600a0a6002540290503073ffffffffffffffffffffffffffffffffffffffff1631811115610a5e573073ffffffffffffffffffffffffffffffffffffffff163190505b43600560003373ffffffffffffffffffffffffffffffffffffffff1673ffffffffffffffffffffffffffffffffffffffff168152602001908152602001600020600301819055503373ffffffffffffffffffffffffffffffffffffffff166108fc829081150290604051600060405180830381858888f19350505050158015610aeb573d6000803e3d6000fd5b507fc486cbcc73b5497f564228f5833a8766da2c87c2b5669ce5838d50bdf396f074338a6000015183604051808473ffffffffffffffffffffffffffffffffffffffff1673ffffffffffffffffffffffffffffffffffffffff168152602001838152602001828152602001935050505060405180910390a1505050505050505050505050565b60015481565b600154341015610bef576040517f08c379a00000000000000000000000000000000000000000000000000000000081526004018080602001828103825260168152602001807f5469636b65747320636f737420302e303035206574680000000000000000000081525060200191505060405180910390fd5b600360008154809291906001019190505550604051806080016040528060035481526020014381526020016001430181526020016000815250600560003373ffffffffffffffffffffffffffffffffffffffff1673ffffffffffffffffffffffffffffffffffffffff168152602001908152602001600020600082015181600001556020820151816001015560408201518160020155606082015181600301559050503373ffffffffffffffffffffffffffffffffffffffff166108fc60015434039081150290604051600060405180830381858888f19350505050158015610cdc573d6000803e3d6000fd5b507f0668f5b446eb814fe35b3206f43f14bd8567ba04ddaf7a3ee56516929ab22ccb33600354604051808373ffffffffffffffffffffffffffffffffffffffff1673ffffffffffffffffffffffffffffffffffffffff1681526020018281526020019250505060405180910390a1565b7fe554fffbd0e5c2a35b0a24fef85d4297554111caf74cc33cb4cc85a117bbe6e060405160405180910390a1565b60025481565b346004600082825401925050819055507fe554fffbd0e5c2a35b0a24fef85d4297554111caf74cc33cb4cc85a117bbe6e060405160405180910390a1565b60008060056002540a9050803073ffffffffffffffffffffffffffffffffffffffff16311015610e08573073ffffffffffffffffffffffffffffffffffffffff1631915050610e0d565b809150505b90565b610e18610f72565b610e8a576040517f08c379a00000000000000000000000000000000000000000000000000000000081526004018080602001828103825260208152602001807f4f776e61626c653a2063616c6c6572206973206e6f7420746865206f776e657281525060200191505060405180910390fd5b600073ffffffffffffffffffffffffffffffffffffffff166000809054906101000a900473ffffffffffffffffffffffffffffffffffffffff1673ffffffffffffffffffffffffffffffffffffffff167f8be0079c531659141344cd1fd0a4f28419497f9722a3daafe3b4186f6b6457e060405160405180910390a360008060006101000a81548173ffffffffffffffffffffffffffffffffffffffff021916908373ffffffffffffffffffffffffffffffffffffffff160217905550565b60008060009054906101000a900473ffffffffffffffffffffffffffffffffffffffff16905090565b60008060009054906101000a900473ffffffffffffffffffffffffffffffffffffffff1673ffffffffffffffffffffffffffffffffffffffff163373ffffffffffffffffffffffffffffffffffffffff1614905090565b60003073ffffffffffffffffffffffffffffffffffffffff1631905090565b60045481565b600080600080610ffc611448565b600560003373ffffffffffffffffffffffffffffffffffffffff1673ffffffffffffffffffffffffffffffffffffffff1681526020019081526020016000206040518060800160405290816000820154815260200160018201548152602001600282015481526020016003820154815250509050806000015181602001518260400151836060015194509450945094505090919293565b60035481565b60056020528060005260406000206000915090508060000154908060010154908060020154908060030154905084565b6110d1610f72565b611143576040517f08c379a00000000000000000000000000000000000000000000000000000000081526004018080602001828103825260208152602001807f4f776e61626c653a2063616c6c6572206973206e6f7420746865206f776e657281525060200191505060405180910390fd5b60006004541161119e576040517f08c379a00000000000000000000000000000000000000000000000000000000081526004018080602001828103825260228152602001806114b96022913960400191505060405180910390fd5b6000600454905060006004819055506111b5610f49565b73ffffffffffffffffffffffffffffffffffffffff166108fc829081150290604051600060405180830381858888f193505050501580156111fa573d6000803e3d6000fd5b5050565b611206610f72565b611278576040517f08c379a00000000000000000000000000000000000000000000000000000000081526004018080602001828103825260208152602001807f4f776e61626c653a2063616c6c6572206973206e6f7420746865206f776e657281525060200191505060405180910390fd5b61128181611304565b50565b6000806000905060008090505b60058160ff1610156112fa576000848260ff16602081106112ae57fe5b1a60f81b60f81c60ff16101580156112df5750600c848260ff16602081106112d257fe5b1a60f81b60f81c60ff1611155b156112ed5781806001019250505b8080600101915050611291565b5080915050919050565b600073ffffffffffffffffffffffffffffffffffffffff168173ffffffffffffffffffffffffffffffffffffffff16141561138a576040517f08c379a00000000000000000000000000000000000000000000000000000000081526004018080602001828103825260268152602001806114716026913960400191505060405180910390fd5b8073ffffffffffffffffffffffffffffffffffffffff166000809054906101000a900473ffffffffffffffffffffffffffffffffffffffff1673ffffffffffffffffffffffffffffffffffffffff167f8be0079c531659141344cd1fd0a4f28419497f9722a3daafe3b4186f6b6457e060405160405180910390a3806000806101000a81548173ffffffffffffffffffffffffffffffffffffffff021916908373ffffffffffffffffffffffffffffffffffffffff16021790555050565b604051806080016040528060008152602001600081526020016000815260200160008152509056fe4f776e61626c653a206e6577206f776e657220697320746865207a65726f20616464726573735469636b657473206f6e6c7920636f6e7461696e2063656c6c73203020746f2031314e6f20646f6e6174696f6e7320666f72206f776e657220746f207769746864726177a165627a7a72305820ee441e0d54cfaf17a2c9e2af68d75db29f2525e7ea7158debc9af5732e481b000029",
  "source": "pragma solidity >=0.4.21 <0.6.0;\n\nimport 'openzeppelin-solidity/contracts/ownership/Ownable.sol';\n\n/** @title Scratch Lottery */\ncontract ScratchLottery is Ownable {\n    // .005 eth = 5000000000000000 wei\n    uint public ticketPrice = .005 ether;\n    uint public prizeMultiplier = .005 ether;\n    uint public ticketCount = 0;\n    uint public donationsToOwner = 0 ether;\n\n    struct Ticket {\n        uint id; //ticket number, unique to player (address)\n        uint blockNumber; // block number at time of buying ticket\n        uint redeemableAt; // block height when user can redeem ticket\n        uint redeemedAt; // timestamp of when user redeemed ticket\n    }\n\n    mapping(address => Ticket) public players;\n\n    event TicketPurchased(address player, uint id);\n    event DonationReceived();\n    event TicketRedeemed(address player, uint id, uint value);\n\n    function() external payable { }\n\n    function balance () public view returns (uint) {\n        return address(this).balance;\n    }\n\n    function donateToOwner() public payable {\n        donationsToOwner += msg.value;\n        emit DonationReceived();\n    }\n\n    function donateToContract() public payable {\n        emit DonationReceived();\n    }\n\n    function jackpot () public view returns (uint) {\n        uint maxPayout = prizeMultiplier ** 5;\n        if(address(this).balance < maxPayout) {\n            return address(this).balance;\n        }\n        return maxPayout;\n    }\n\n    function withdrawDonationsToOwner() public payable onlyOwner {\n        require(donationsToOwner > 0, 'No donations for owner to withdraw');\n        uint amountToWithdraw = donationsToOwner;\n        donationsToOwner = 0;\n        address(uint160(owner())).transfer(amountToWithdraw);\n    }\n\n    function purchaseTicket() public payable {\n        // require payment to run\n        require(msg.value >= ticketPrice, 'Tickets cost 0.005 eth');\n\n        ticketCount++;\n\n        players[msg.sender] = Ticket({\n            id: ticketCount,\n            blockNumber: block.number,\n            redeemableAt: block.number + 1,\n            redeemedAt: 0\n        });\n\n        // return any overpayment to the sender\n        msg.sender.transfer(msg.value - ticketPrice);\n        emit TicketPurchased(msg.sender, ticketCount);\n    }\n\n    function getTicket() public view returns (\n        uint id,\n        uint blockNumber,\n        uint redeemableAt,\n        uint redeemedAt\n    ) {\n        Ticket memory ticket = players[msg.sender];\n        return (ticket.id, ticket.blockNumber, ticket.redeemableAt, ticket.redeemedAt);\n    }\n\n    function countTargetsInFirst5Bytes(bytes32 _hash) internal pure returns(uint8) {\n        uint8 count = 0;\n        for(uint8 i = 0; i < 5; i++) {\n            if(uint8(_hash[i]) >= 0 && uint8(_hash[i]) <= 12) {\n                count++;\n            }\n        }\n        return count;\n    }\n    /**\n     * given 3 unique cells on a ticket,\n     * awards a win if hashes of all 3 cells contain the same number of zeros in their hash\n     * prize is .05 ether * number of zeros\n     */\n    function redeemWin(uint _index1, uint _index2, uint _index3) public {\n        require(\n            _index1 != _index2 && _index2 != _index3 && _index1 != _index3,\n            'Must provide 3 unique cells'\n        );\n        require(\n            _index1 < 12 && _index2 < 12 && _index3 < 12,\n            'Tickets only contain cells 0 to 11'\n        );\n        Ticket memory ticket = players[msg.sender];\n        require(ticket.id > 0, 'You have no ticket');\n        require(ticket.redeemableAt <= block.number, 'Ticket not mined yet');\n        require(ticket.redeemedAt == 0, 'Ticket already redeemed');\n        bytes32 nextBlockHash = blockhash(ticket.redeemableAt);\n\n        require(\n            nextBlockHash != 0x0000000000000000000000000000000000000000000000000000000000000000,\n            'Ticket is expired'\n        );\n        // get the number of bytes that are between 0 and 8 (inclusive) in the first 5 bytes of each cell\n        bytes32 _hash1 = keccak256(abi.encodePacked(msg.sender,ticket.id,_index1,nextBlockHash));\n        uint count1 = countTargetsInFirst5Bytes(_hash1);\n\n        bytes32 _hash2 = keccak256(abi.encodePacked(msg.sender,ticket.id,_index2,nextBlockHash));\n        uint count2 = countTargetsInFirst5Bytes(_hash2);\n\n        bytes32 _hash3 = keccak256(abi.encodePacked(msg.sender,ticket.id,_index3,nextBlockHash));\n        uint count3 = countTargetsInFirst5Bytes(_hash3);\n\n        // make sure number of zeros for all claimed cells match\n        require(count1 == count2 && count2 == count3, '3 matches required to win');\n        // mark the ticket as redeemed\n        require(count1 > 0, 'Ticket is not a winner');\n        uint payout = prizeMultiplier * (10 ** (count1 - 1));\n        if(payout > address(this).balance) {\n            payout = address(this).balance;\n        }\n        players[msg.sender].redeemedAt = block.number;\n        msg.sender.transfer(payout);\n        emit TicketRedeemed(msg.sender, ticket.id, payout);\n    }\n}\n",
  "sourcePath": "/home/chris/crunchy/eth-scratch-lottery/contracts/ScratchLottery.sol",
  "compiler": {
    "name": "solc",
    "version": "0.5.8+commit.23d335f2.Emscripten.clang"
  },
  "schemaVersion": "3.0.10",
  "updatedAt": "2019-06-16T02:17:33.152Z",
  "devdoc": {
    "methods": {
      "isOwner()": {
        "details": "Returns true if the caller is the current owner."
      },
      "owner()": {
        "details": "Returns the address of the current owner."
      },
      "renounceOwnership()": {
        "details": "Leaves the contract without owner. It will not be possible to call `onlyOwner` functions anymore. Can only be called by the current owner.     * > Note: Renouncing ownership will leave the contract without an owner, thereby removing any functionality that is only available to the owner."
      },
      "transferOwnership(address)": {
        "details": "Transfers ownership of the contract to a new account (`newOwner`). Can only be called by the current owner."
      }
    },
    "title": "Scratch Lottery "
  },
  "userdoc": {
    "methods": {
      "redeemWin(uint256,uint256,uint256)": {
        "notice": "given 3 unique cells on a ticket, awards a win if hashes of all 3 cells contain the same number of zeros in their hash prize is .05 ether * number of zeros"
      }
    }
  }
}