{
  "contractName": "ScratchLottery",
  "abi": [
    {
      "constant": true,
      "inputs": [],
      "name": "ticketPrice",
      "outputs": [
        {
          "name": "",
          "type": "uint256"
        }
      ],
      "payable": false,
      "stateMutability": "view",
      "type": "function"
    },
    {
      "constant": true,
      "inputs": [],
      "name": "prizeMultiplier",
      "outputs": [
        {
          "name": "",
          "type": "uint256"
        }
      ],
      "payable": false,
      "stateMutability": "view",
      "type": "function"
    },
    {
      "constant": false,
      "inputs": [],
      "name": "renounceOwnership",
      "outputs": [],
      "payable": false,
      "stateMutability": "nonpayable",
      "type": "function"
    },
    {
      "constant": true,
      "inputs": [],
      "name": "owner",
      "outputs": [
        {
          "name": "",
          "type": "address"
        }
      ],
      "payable": false,
      "stateMutability": "view",
      "type": "function"
    },
    {
      "constant": true,
      "inputs": [],
      "name": "isOwner",
      "outputs": [
        {
          "name": "",
          "type": "bool"
        }
      ],
      "payable": false,
      "stateMutability": "view",
      "type": "function"
    },
    {
      "constant": true,
      "inputs": [],
      "name": "ticketCount",
      "outputs": [
        {
          "name": "",
          "type": "uint256"
        }
      ],
      "payable": false,
      "stateMutability": "view",
      "type": "function"
    },
    {
      "constant": true,
      "inputs": [
        {
          "name": "",
          "type": "address"
        }
      ],
      "name": "players",
      "outputs": [
        {
          "name": "id",
          "type": "uint256"
        },
        {
          "name": "blockNumber",
          "type": "uint256"
        },
        {
          "name": "redeemableAt",
          "type": "uint256"
        },
        {
          "name": "redeemedAt",
          "type": "uint256"
        }
      ],
      "payable": false,
      "stateMutability": "view",
      "type": "function"
    },
    {
      "constant": false,
      "inputs": [
        {
          "name": "newOwner",
          "type": "address"
        }
      ],
      "name": "transferOwnership",
      "outputs": [],
      "payable": false,
      "stateMutability": "nonpayable",
      "type": "function"
    },
    {
      "payable": true,
      "stateMutability": "payable",
      "type": "fallback"
    },
    {
      "anonymous": false,
      "inputs": [
        {
          "indexed": false,
          "name": "player",
          "type": "address"
        },
        {
          "indexed": false,
          "name": "id",
          "type": "uint256"
        }
      ],
      "name": "TicketPurchased",
      "type": "event"
    },
    {
      "anonymous": false,
      "inputs": [
        {
          "indexed": false,
          "name": "player",
          "type": "address"
        },
        {
          "indexed": false,
          "name": "id",
          "type": "uint256"
        },
        {
          "indexed": false,
          "name": "value",
          "type": "uint256"
        }
      ],
      "name": "TicketRedeemed",
      "type": "event"
    },
    {
      "anonymous": false,
      "inputs": [
        {
          "indexed": true,
          "name": "previousOwner",
          "type": "address"
        },
        {
          "indexed": true,
          "name": "newOwner",
          "type": "address"
        }
      ],
      "name": "OwnershipTransferred",
      "type": "event"
    },
    {
      "constant": true,
      "inputs": [],
      "name": "balance",
      "outputs": [
        {
          "name": "",
          "type": "uint256"
        }
      ],
      "payable": false,
      "stateMutability": "view",
      "type": "function"
    },
    {
      "constant": true,
      "inputs": [],
      "name": "jackpot",
      "outputs": [
        {
          "name": "",
          "type": "uint256"
        }
      ],
      "payable": false,
      "stateMutability": "view",
      "type": "function"
    },
    {
      "constant": false,
      "inputs": [
        {
          "name": "amount",
          "type": "uint256"
        }
      ],
      "name": "withdraw",
      "outputs": [
        {
          "name": "",
          "type": "bool"
        }
      ],
      "payable": true,
      "stateMutability": "payable",
      "type": "function"
    },
    {
      "constant": false,
      "inputs": [],
      "name": "purchaseTicket",
      "outputs": [],
      "payable": true,
      "stateMutability": "payable",
      "type": "function"
    },
    {
      "constant": true,
      "inputs": [],
      "name": "getTicket",
      "outputs": [
        {
          "name": "id",
          "type": "uint256"
        },
        {
          "name": "blockNumber",
          "type": "uint256"
        },
        {
          "name": "redeemableAt",
          "type": "uint256"
        },
        {
          "name": "redeemedAt",
          "type": "uint256"
        }
      ],
      "payable": false,
      "stateMutability": "view",
      "type": "function"
    },
    {
      "constant": true,
      "inputs": [],
      "name": "cellHash",
      "outputs": [
        {
          "name": "nextHash",
          "type": "bytes32"
        }
      ],
      "payable": false,
      "stateMutability": "view",
      "type": "function"
    },
    {
      "constant": true,
      "inputs": [],
      "name": "nextBlockHash",
      "outputs": [
        {
          "name": "nextHash",
          "type": "bytes32"
        }
      ],
      "payable": false,
      "stateMutability": "view",
      "type": "function"
    },
    {
      "constant": true,
      "inputs": [],
      "name": "hashedBlockHash",
      "outputs": [
        {
          "name": "hashedBlockHash",
          "type": "bytes32"
        }
      ],
      "payable": false,
      "stateMutability": "view",
      "type": "function"
    },
    {
      "constant": false,
      "inputs": [
        {
          "name": "_index1",
          "type": "uint256"
        },
        {
          "name": "_index2",
          "type": "uint256"
        },
        {
          "name": "_index3",
          "type": "uint256"
        }
      ],
      "name": "redeemWin",
      "outputs": [],
      "payable": false,
      "stateMutability": "nonpayable",
      "type": "function"
    }
  ],
  "bytecode": "0x60806040526611c37937e080006001556611c37937e0800060025560006003556706f05b59d3b20000600455336000806101000a81548173ffffffffffffffffffffffffffffffffffffffff021916908373ffffffffffffffffffffffffffffffffffffffff1602179055506000809054906101000a900473ffffffffffffffffffffffffffffffffffffffff1673ffffffffffffffffffffffffffffffffffffffff16600073ffffffffffffffffffffffffffffffffffffffff167f8be0079c531659141344cd1fd0a4f28419497f9722a3daafe3b4186f6b6457e060405160405180910390a36119f3806100f66000396000f3fe6080604052600436106100fe5760003560e01c80638da5cb5b11610095578063c002c4d611610064578063c002c4d61461033e578063c0ab412f1461037e578063cfbd900f146103a9578063e2eb41ff146103d4578063f2fde38b1461044e576100fe565b80638da5cb5b146102625780638f32d59b146102b957806392a687a5146102e8578063b69ef8a814610313576100fe565b806350dae4a0116100d157806350dae4a0146101ca5780636b31ee01146101f5578063715018a6146102205780637995ee7c14610237576100fe565b806310692744146101005780631209b1f61461014f57806321846c761461017a5780632e1a7d4d14610184575b005b34801561010c57600080fd5b5061014d6004803603606081101561012357600080fd5b8101908080359060200190929190803590602001909291908035906020019092919050505061049f565b005b34801561015b57600080fd5b50610164610bef565b6040518082815260200191505060405180910390f35b610182610bf5565b005b6101b06004803603602081101561019a57600080fd5b8101908080359060200190929190505050610dca565b604051808215151515815260200191505060405180910390f35b3480156101d657600080fd5b506101df610ee1565b6040518082815260200191505060405180910390f35b34801561020157600080fd5b5061020a610ee7565b6040518082815260200191505060405180910390f35b34801561022c57600080fd5b50610235610f39565b005b34801561024357600080fd5b5061024c611072565b6040518082815260200191505060405180910390f35b34801561026e57600080fd5b506102776111f0565b604051808273ffffffffffffffffffffffffffffffffffffffff1673ffffffffffffffffffffffffffffffffffffffff16815260200191505060405180910390f35b3480156102c557600080fd5b506102ce611219565b604051808215151515815260200191505060405180910390f35b3480156102f457600080fd5b506102fd611270565b6040518082815260200191505060405180910390f35b34801561031f57600080fd5b50610328611466565b6040518082815260200191505060405180910390f35b34801561034a57600080fd5b50610353611485565b6040518085815260200184815260200183815260200182815260200194505050505060405180910390f35b34801561038a57600080fd5b5061039361152a565b6040518082815260200191505060405180910390f35b3480156103b557600080fd5b506103be6116d7565b6040518082815260200191505060405180910390f35b3480156103e057600080fd5b50610423600480360360208110156103f757600080fd5b81019080803573ffffffffffffffffffffffffffffffffffffffff1690602001909291905050506116dd565b6040518085815260200184815260200183815260200182815260200194505050505060405180910390f35b34801561045a57600080fd5b5061049d6004803603602081101561047157600080fd5b81019080803573ffffffffffffffffffffffffffffffffffffffff16906020019092919050505061170d565b005b8183141580156104af5750808214155b80156104bb5750808314155b61052d576040517f08c379a000000000000000000000000000000000000000000000000000000000815260040180806020018281038252601b8152602001807f4d7573742070726f76696465203320756e697175652063656c6c73000000000081525060200191505060405180910390fd5b600c8310801561053d5750600c82105b80156105495750600c81105b61059e576040517f08c379a00000000000000000000000000000000000000000000000000000000081526004018080602001828103825260228152602001806119a66022913960400191505060405180910390fd5b6105a6611957565b600560003373ffffffffffffffffffffffffffffffffffffffff1673ffffffffffffffffffffffffffffffffffffffff16815260200190815260200160002060405180608001604052908160008201548152602001600182015481526020016002820154815260200160038201548152505090506000816000015111610694576040517f08c379a00000000000000000000000000000000000000000000000000000000081526004018080602001828103825260128152602001807f596f752068617665206e6f207469636b6574000000000000000000000000000081525060200191505060405180910390fd5b438160400151111561070e576040517f08c379a00000000000000000000000000000000000000000000000000000000081526004018080602001828103825260148152602001807f5469636b6574206e6f74206d696e65642079657400000000000000000000000081525060200191505060405180910390fd5b6000816060015114610788576040517f08c379a00000000000000000000000000000000000000000000000000000000081526004018080602001828103825260178152602001807f5469636b657420616c72656164792072656465656d656400000000000000000081525060200191505060405180910390fd5b600081604001514090506000801b81141561080b576040517f08c379a00000000000000000000000000000000000000000000000000000000081526004018080602001828103825260118152602001807f5469636b6574206973206578706972656400000000000000000000000000000081525060200191505060405180910390fd5b60003383600001518784604051602001808573ffffffffffffffffffffffffffffffffffffffff1673ffffffffffffffffffffffffffffffffffffffff1660601b8152601401848152602001838152602001828152602001945050505050604051602081830303815290604052805190602001209050600061088c82611793565b60ff16905060003385600001518886604051602001808573ffffffffffffffffffffffffffffffffffffffff1673ffffffffffffffffffffffffffffffffffffffff1660601b8152601401848152602001838152602001828152602001945050505050604051602081830303815290604052805190602001209050600061091282611793565b60ff16905060003387600001518988604051602001808573ffffffffffffffffffffffffffffffffffffffff1673ffffffffffffffffffffffffffffffffffffffff1660601b8152601401848152602001838152602001828152602001945050505050604051602081830303815290604052805190602001209050600061099882611793565b60ff16905082851480156109ab57508083145b610a1d576040517f08c379a00000000000000000000000000000000000000000000000000000000081526004018080602001828103825260198152602001807f33206d61746368657320726571756972656420746f2077696e0000000000000081525060200191505060405180910390fd5b60008511610a93576040517f08c379a00000000000000000000000000000000000000000000000000000000081526004018080602001828103825260168152602001807f5469636b6574206973206e6f7420612077696e6e65720000000000000000000081525060200191505060405180910390fd5b600060018603600a0a6002540290503073ffffffffffffffffffffffffffffffffffffffff1631811115610adc573073ffffffffffffffffffffffffffffffffffffffff163190505b43600560003373ffffffffffffffffffffffffffffffffffffffff1673ffffffffffffffffffffffffffffffffffffffff168152602001908152602001600020600301819055503373ffffffffffffffffffffffffffffffffffffffff166108fc829081150290604051600060405180830381858888f19350505050158015610b69573d6000803e3d6000fd5b507fc486cbcc73b5497f564228f5833a8766da2c87c2b5669ce5838d50bdf396f074338a6000015183604051808473ffffffffffffffffffffffffffffffffffffffff1673ffffffffffffffffffffffffffffffffffffffff168152602001838152602001828152602001935050505060405180910390a1505050505050505050505050565b60015481565b600154341015610c6d576040517f08c379a00000000000000000000000000000000000000000000000000000000081526004018080602001828103825260168152602001807f5469636b65747320636f737420302e303035206574680000000000000000000081525060200191505060405180910390fd5b600360008154809291906001019190505550604051806080016040528060035481526020014381526020016001430181526020016000815250600560003373ffffffffffffffffffffffffffffffffffffffff1673ffffffffffffffffffffffffffffffffffffffff168152602001908152602001600020600082015181600001556020820151816001015560408201518160020155606082015181600301559050503373ffffffffffffffffffffffffffffffffffffffff166108fc60015434039081150290604051600060405180830381858888f19350505050158015610d5a573d6000803e3d6000fd5b507f0668f5b446eb814fe35b3206f43f14bd8567ba04ddaf7a3ee56516929ab22ccb33600354604051808373ffffffffffffffffffffffffffffffffffffffff1673ffffffffffffffffffffffffffffffffffffffff1681526020018281526020019250505060405180910390a1565b6000610dd4611219565b610e46576040517f08c379a00000000000000000000000000000000000000000000000000000000081526004018080602001828103825260208152602001807f4f776e61626c653a2063616c6c6572206973206e6f7420746865206f776e657281525060200191505060405180910390fd5b60008290503073ffffffffffffffffffffffffffffffffffffffff1631831115610e85573073ffffffffffffffffffffffffffffffffffffffff163190505b610e8d6111f0565b73ffffffffffffffffffffffffffffffffffffffff166108fc60045483039081150290604051600060405180830381858888f19350505050158015610ed6573d6000803e3d6000fd5b506001915050919050565b60025481565b60008060056002540a9050803073ffffffffffffffffffffffffffffffffffffffff16311015610f31573073ffffffffffffffffffffffffffffffffffffffff1631915050610f36565b809150505b90565b610f41611219565b610fb3576040517f08c379a00000000000000000000000000000000000000000000000000000000081526004018080602001828103825260208152602001807f4f776e61626c653a2063616c6c6572206973206e6f7420746865206f776e657281525060200191505060405180910390fd5b600073ffffffffffffffffffffffffffffffffffffffff166000809054906101000a900473ffffffffffffffffffffffffffffffffffffffff1673ffffffffffffffffffffffffffffffffffffffff167f8be0079c531659141344cd1fd0a4f28419497f9722a3daafe3b4186f6b6457e060405160405180910390a360008060006101000a81548173ffffffffffffffffffffffffffffffffffffffff021916908373ffffffffffffffffffffffffffffffffffffffff160217905550565b600061107c611957565b600560003373ffffffffffffffffffffffffffffffffffffffff1673ffffffffffffffffffffffffffffffffffffffff1681526020019081526020016000206040518060800160405290816000820154815260200160018201548152602001600282015481526020016003820154815250509050600081600001511161116a576040517f08c379a00000000000000000000000000000000000000000000000000000000081526004018080602001828103825260128152602001807f596f752068617665206e6f207469636b6574000000000000000000000000000081525060200191505060405180910390fd5b43816040015111156111e4576040517f08c379a00000000000000000000000000000000000000000000000000000000081526004018080602001828103825260148152602001807f5469636b6574206e6f74206d696e65642079657400000000000000000000000081525060200191505060405180910390fd5b80604001514091505090565b60008060009054906101000a900473ffffffffffffffffffffffffffffffffffffffff16905090565b60008060009054906101000a900473ffffffffffffffffffffffffffffffffffffffff1673ffffffffffffffffffffffffffffffffffffffff163373ffffffffffffffffffffffffffffffffffffffff1614905090565b600061127a611957565b600560003373ffffffffffffffffffffffffffffffffffffffff1673ffffffffffffffffffffffffffffffffffffffff16815260200190815260200160002060405180608001604052908160008201548152602001600182015481526020016002820154815260200160038201548152505090506000816000015111611368576040517f08c379a00000000000000000000000000000000000000000000000000000000081526004018080602001828103825260128152602001807f596f752068617665206e6f207469636b6574000000000000000000000000000081525060200191505060405180910390fd5b43816040015111156113e2576040517f08c379a00000000000000000000000000000000000000000000000000000000081526004018080602001828103825260148152602001807f5469636b6574206e6f74206d696e65642079657400000000000000000000000081525060200191505060405180910390fd5b60003382600001516000846040015140604051602001808573ffffffffffffffffffffffffffffffffffffffff1673ffffffffffffffffffffffffffffffffffffffff1660601b8152601401848152602001838152602001828152602001945050505050604051602081830303815290604052805190602001209050809250505090565b60003073ffffffffffffffffffffffffffffffffffffffff1631905090565b600080600080611493611957565b600560003373ffffffffffffffffffffffffffffffffffffffff1673ffffffffffffffffffffffffffffffffffffffff1681526020019081526020016000206040518060800160405290816000820154815260200160018201548152602001600282015481526020016003820154815250509050806000015181602001518260400151836060015194509450945094505090919293565b6000611534611957565b600560003373ffffffffffffffffffffffffffffffffffffffff1673ffffffffffffffffffffffffffffffffffffffff16815260200190815260200160002060405180608001604052908160008201548152602001600182015481526020016002820154815260200160038201548152505090506000816000015111611622576040517f08c379a00000000000000000000000000000000000000000000000000000000081526004018080602001828103825260128152602001807f596f752068617665206e6f207469636b6574000000000000000000000000000081525060200191505060405180910390fd5b438160400151111561169c576040517f08c379a00000000000000000000000000000000000000000000000000000000081526004018080602001828103825260148152602001807f5469636b6574206e6f74206d696e65642079657400000000000000000000000081525060200191505060405180910390fd5b600081604001514060405160200180838152602001828152602001925050506040516020818303038152906040528051906020012091505090565b60035481565b60056020528060005260406000206000915090508060000154908060010154908060020154908060030154905084565b611715611219565b611787576040517f08c379a00000000000000000000000000000000000000000000000000000000081526004018080602001828103825260208152602001807f4f776e61626c653a2063616c6c6572206973206e6f7420746865206f776e657281525060200191505060405180910390fd5b61179081611813565b50565b6000806000905060008090505b60058160ff161015611809576000848260ff16602081106117bd57fe5b1a60f81b60f81c60ff16101580156117ee5750600c848260ff16602081106117e157fe5b1a60f81b60f81c60ff1611155b156117fc5781806001019250505b80806001019150506117a0565b5080915050919050565b600073ffffffffffffffffffffffffffffffffffffffff168173ffffffffffffffffffffffffffffffffffffffff161415611899576040517f08c379a00000000000000000000000000000000000000000000000000000000081526004018080602001828103825260268152602001806119806026913960400191505060405180910390fd5b8073ffffffffffffffffffffffffffffffffffffffff166000809054906101000a900473ffffffffffffffffffffffffffffffffffffffff1673ffffffffffffffffffffffffffffffffffffffff167f8be0079c531659141344cd1fd0a4f28419497f9722a3daafe3b4186f6b6457e060405160405180910390a3806000806101000a81548173ffffffffffffffffffffffffffffffffffffffff021916908373ffffffffffffffffffffffffffffffffffffffff16021790555050565b604051806080016040528060008152602001600081526020016000815260200160008152509056fe4f776e61626c653a206e6577206f776e657220697320746865207a65726f20616464726573735469636b657473206f6e6c7920636f6e7461696e2063656c6c73203020746f203131a165627a7a72305820390900710a7679259f27f8e2d3f2e571232b4d04659b0166ff115d55c41a667a0029",
  "source": "pragma solidity >=0.4.21 <0.6.0;\n\nimport 'openzeppelin-solidity/contracts/ownership/Ownable.sol';\n\n/** @title Scratch Lottery */\ncontract ScratchLottery is Ownable {\n    // .005 eth = 5000000000000000 wei\n    uint public ticketPrice = .005 ether;\n    uint public prizeMultiplier = .005 ether;\n    uint public ticketCount = 0;\n    uint payoutFloat = .5 ether;\n\n    struct Ticket {\n        uint id; //ticket number, unique to player (address)\n        uint blockNumber; // block number at time of buying ticket\n        uint redeemableAt; // block height when user can redeem ticket\n        uint redeemedAt; // timestamp of when user redeemed ticket\n    }\n\n    mapping(address => Ticket) public players;\n\n    event TicketPurchased(address player, uint id);\n    event TicketRedeemed(address player, uint id, uint value);\n\n    function() external payable { }\n\n    function balance () public view returns (uint) {\n        return address(this).balance;\n    }\n\n    function jackpot () public view returns (uint) {\n        uint maxPayout = prizeMultiplier ** 5;\n        if(address(this).balance < maxPayout) {\n            return address(this).balance;\n        }\n        return maxPayout;\n    }\n\n    function withdraw(uint amount) public payable onlyOwner returns(bool) {\n        uint payout = amount;\n        if(amount > address(this).balance) {\n            payout = address(this).balance;\n        }\n        address(uint160(owner())).transfer(payout - payoutFloat);\n        return true;\n    }\n\n    function purchaseTicket() public payable {\n        // require payment to run\n        require(msg.value >= ticketPrice, 'Tickets cost 0.005 eth');\n\n        ticketCount++;\n\n        players[msg.sender] = Ticket({\n            id: ticketCount,\n            blockNumber: block.number,\n            redeemableAt: block.number + 1,\n            redeemedAt: 0\n        });\n\n        // return any overpayment to the sender\n        msg.sender.transfer(msg.value - ticketPrice);\n        emit TicketPurchased(msg.sender, ticketCount);\n    }\n\n    function getTicket() public view returns (\n        uint id,\n        uint blockNumber,\n        uint redeemableAt,\n        uint redeemedAt\n    ) {\n        Ticket memory ticket = players[msg.sender];\n        return (ticket.id, ticket.blockNumber, ticket.redeemableAt, ticket.redeemedAt);\n    }\n\n    function cellHash() public view returns (bytes32 nextHash) {\n        Ticket memory ticket = players[msg.sender];\n        require(ticket.id > 0, 'You have no ticket');\n        require(ticket.redeemableAt <= block.number, 'Ticket not mined yet');\n        bytes32 cell0Hash = keccak256(abi.encodePacked(msg.sender,ticket.id,uint(0),blockhash(ticket.redeemableAt)));\n        return (cell0Hash);\n    }\n\n    function nextBlockHash() public view returns (bytes32 nextHash) {\n        Ticket memory ticket = players[msg.sender];\n        require(ticket.id > 0, 'You have no ticket');\n        require(ticket.redeemableAt <= block.number, 'Ticket not mined yet');\n        return (blockhash(ticket.redeemableAt));\n    }\n\n    function hashedBlockHash() public view returns (bytes32 hashedBlockHash) {\n        Ticket memory ticket = players[msg.sender];\n        require(ticket.id > 0, 'You have no ticket');\n        require(ticket.redeemableAt <= block.number, 'Ticket not mined yet');\n        return (keccak256(abi.encodePacked(uint(0),blockhash(ticket.redeemableAt))));\n    }\n\n    function countTargetsInFirst5Bytes(bytes32 _hash) internal pure returns(uint8) {\n        uint8 count = 0;\n        for(uint8 i = 0; i < 5; i++) {\n            if(uint8(_hash[i]) >= 0 && uint8(_hash[i]) <= 12) {\n                count++;\n            }\n        }\n        return count;\n    }\n    /**\n     * given 3 unique cells on a ticket,\n     * awards a win if hashes of all 3 cells contain the same number of zeros in their hash\n     * prize is .05 ether * number of zeros\n     */\n    function redeemWin(uint _index1, uint _index2, uint _index3) public {\n        require(\n            _index1 != _index2 && _index2 != _index3 && _index1 != _index3,\n            'Must provide 3 unique cells'\n        );\n        require(\n            _index1 < 12 && _index2 < 12 && _index3 < 12,\n            'Tickets only contain cells 0 to 11'\n        );\n        Ticket memory ticket = players[msg.sender];\n        require(ticket.id > 0, 'You have no ticket');\n        require(ticket.redeemableAt <= block.number, 'Ticket not mined yet');\n        require(ticket.redeemedAt == 0, 'Ticket already redeemed');\n        bytes32 nextBlockHash = blockhash(ticket.redeemableAt);\n\n        require(\n            nextBlockHash != 0x0000000000000000000000000000000000000000000000000000000000000000,\n            'Ticket is expired'\n        );\n        // get the number of bytes that are between 0 and 8 (inclusive) in the first 5 bytes of each cell\n        bytes32 _hash1 = keccak256(abi.encodePacked(msg.sender,ticket.id,_index1,nextBlockHash));\n        uint count1 = countTargetsInFirst5Bytes(_hash1);\n\n        bytes32 _hash2 = keccak256(abi.encodePacked(msg.sender,ticket.id,_index2,nextBlockHash));\n        uint count2 = countTargetsInFirst5Bytes(_hash2);\n\n        bytes32 _hash3 = keccak256(abi.encodePacked(msg.sender,ticket.id,_index3,nextBlockHash));\n        uint count3 = countTargetsInFirst5Bytes(_hash3);\n\n        // make sure number of zeros for all claimed cells match\n        require(count1 == count2 && count2 == count3, '3 matches required to win');\n        // mark the ticket as redeemed\n        require(count1 > 0, 'Ticket is not a winner');\n        uint payout = prizeMultiplier * (10 ** (count1 - 1));\n        if(payout > address(this).balance) {\n            payout = address(this).balance;\n        }\n        players[msg.sender].redeemedAt = block.number;\n        msg.sender.transfer(payout);\n        emit TicketRedeemed(msg.sender, ticket.id, payout);\n    }\n}\n",
  "sourcePath": "/home/chris/crunchy/eth-scratch-lottery/contracts/ScratchLottery.sol",
  "compiler": {
    "name": "solc",
    "version": "0.5.8+commit.23d335f2.Emscripten.clang"
  },
  "schemaVersion": "3.0.10",
  "updatedAt": "2019-06-14T19:54:34.471Z",
  "devdoc": {
    "methods": {
      "isOwner()": {
        "details": "Returns true if the caller is the current owner."
      },
      "owner()": {
        "details": "Returns the address of the current owner."
      },
      "renounceOwnership()": {
        "details": "Leaves the contract without owner. It will not be possible to call `onlyOwner` functions anymore. Can only be called by the current owner.     * > Note: Renouncing ownership will leave the contract without an owner, thereby removing any functionality that is only available to the owner."
      },
      "transferOwnership(address)": {
        "details": "Transfers ownership of the contract to a new account (`newOwner`). Can only be called by the current owner."
      }
    },
    "title": "Scratch Lottery "
  },
  "userdoc": {
    "methods": {
      "redeemWin(uint256,uint256,uint256)": {
        "notice": "given 3 unique cells on a ticket, awards a win if hashes of all 3 cells contain the same number of zeros in their hash prize is .05 ether * number of zeros"
      }
    }
  }
}